{
  "address": "0x627b9A657eac8c3463AD17009a424dFE3FDbd0b1",
  "abi": [
    {
      "anonymous": false,
      "inputs": [
        {
          "indexed": true,
          "internalType": "uint256",
          "name": "dcaScheduleId",
          "type": "uint256"
        },
        {
          "indexed": false,
          "internalType": "address",
          "name": "sellToken",
          "type": "address"
        },
        {
          "indexed": false,
          "internalType": "address",
          "name": "buyToken",
          "type": "address"
        },
        {
          "indexed": false,
          "internalType": "uint256",
          "name": "soldAmount",
          "type": "uint256"
        },
        {
          "indexed": false,
          "internalType": "uint256",
          "name": "boughtAmount",
          "type": "uint256"
        },
        {
          "indexed": false,
          "internalType": "uint256",
          "name": "remainingBudget",
          "type": "uint256"
        },
        {
          "indexed": false,
          "internalType": "bool",
          "name": "scheduleStatus",
          "type": "bool"
        },
        {
          "indexed": false,
          "internalType": "uint256",
          "name": "gasUsed",
          "type": "uint256"
        },
        {
          "indexed": false,
          "internalType": "uint256",
          "name": "gasRemaining",
          "type": "uint256"
        },
        {
          "indexed": false,
          "internalType": "uint256",
          "name": "nextRun",
          "type": "uint256"
        },
        {
          "indexed": true,
          "internalType": "address",
          "name": "dcaOwner",
          "type": "address"
        }
      ],
      "name": "BoughtTokens",
      "type": "event"
    },
    {
      "anonymous": false,
      "inputs": [
        {
          "indexed": true,
          "internalType": "address",
          "name": "sender",
          "type": "address"
        },
        {
          "indexed": false,
          "internalType": "address",
          "name": "token",
          "type": "address"
        },
        {
          "indexed": false,
          "internalType": "uint256",
          "name": "amount",
          "type": "uint256"
        }
      ],
      "name": "FundsDeposited",
      "type": "event"
    },
    {
      "anonymous": false,
      "inputs": [
        {
          "indexed": true,
          "internalType": "address",
          "name": "receiver",
          "type": "address"
        },
        {
          "indexed": false,
          "internalType": "address",
          "name": "token",
          "type": "address"
        },
        {
          "indexed": false,
          "internalType": "uint256",
          "name": "amount",
          "type": "uint256"
        }
      ],
      "name": "FundsWithdrawn",
      "type": "event"
    },
    {
      "anonymous": false,
      "inputs": [
        {
          "indexed": true,
          "internalType": "uint256",
          "name": "dcaScheduleId",
          "type": "uint256"
        },
        {
          "indexed": false,
          "internalType": "address",
          "name": "buyToken",
          "type": "address"
        },
        {
          "indexed": false,
          "internalType": "address",
          "name": "sellToken",
          "type": "address"
        },
        {
          "indexed": true,
          "internalType": "address",
          "name": "dcaOwner",
          "type": "address"
        }
      ],
      "name": "NewUserSchedule",
      "type": "event"
    },
    {
      "anonymous": false,
      "inputs": [
        {
          "indexed": true,
          "internalType": "address",
          "name": "previousOwner",
          "type": "address"
        },
        {
          "indexed": true,
          "internalType": "address",
          "name": "newOwner",
          "type": "address"
        }
      ],
      "name": "OwnershipTransferred",
      "type": "event"
    },
    {
      "stateMutability": "payable",
      "type": "fallback"
    },
    {
      "inputs": [
        {
          "internalType": "uint256",
          "name": "_tradeAmount",
          "type": "uint256"
        },
        {
          "internalType": "uint256",
          "name": "_tradeFrequency",
          "type": "uint256"
        },
        {
          "internalType": "uint256",
          "name": "_startDate",
          "type": "uint256"
        },
        {
          "internalType": "uint256",
          "name": "_endDate",
          "type": "uint256"
        },
        {
          "internalType": "address",
          "name": "_sellToken",
          "type": "address"
        }
      ],
      "name": "calculateDeposit",
      "outputs": [
        {
          "internalType": "uint256",
          "name": "",
          "type": "uint256"
        }
      ],
      "stateMutability": "view",
      "type": "function"
    },
    {
      "inputs": [
        {
          "internalType": "uint256",
          "name": "_tradeFrequency",
          "type": "uint256"
        },
        {
          "internalType": "uint256",
          "name": "_startDate",
          "type": "uint256"
        },
        {
          "internalType": "uint256",
          "name": "_endDate",
          "type": "uint256"
        }
      ],
      "name": "calculateExecutions",
      "outputs": [
        {
          "internalType": "uint256",
          "name": "",
          "type": "uint256"
        }
      ],
      "stateMutability": "pure",
      "type": "function"
    },
    {
      "inputs": [
        {
          "internalType": "uint256",
          "name": "_tradeAmount",
          "type": "uint256"
        },
        {
          "internalType": "uint256",
          "name": "_tradeFrequency",
          "type": "uint256"
        },
        {
          "internalType": "uint256",
          "name": "_startDate",
          "type": "uint256"
        },
        {
          "internalType": "uint256",
          "name": "_endDate",
          "type": "uint256"
        }
      ],
      "name": "calculateGasDeposit",
      "outputs": [
        {
          "internalType": "uint256",
          "name": "",
          "type": "uint256"
        }
      ],
      "stateMutability": "view",
      "type": "function"
    },
    {
      "inputs": [
        {
          "internalType": "uint256",
          "name": "_tradeFrequency",
          "type": "uint256"
        },
        {
          "internalType": "uint256",
          "name": "_tradeAmount",
          "type": "uint256"
        },
        {
          "internalType": "address",
          "name": "_buyToken",
          "type": "address"
        },
        {
          "internalType": "address",
          "name": "_sellToken",
          "type": "address"
        },
        {
          "internalType": "uint256",
          "name": "_startDate",
          "type": "uint256"
        },
        {
          "internalType": "uint256",
          "name": "_endDate",
          "type": "uint256"
        },
        {
          "internalType": "uint256",
          "name": "_currGasEstimate",
          "type": "uint256"
        }
      ],
      "name": "createDcaSchedule",
      "outputs": [],
      "stateMutability": "nonpayable",
      "type": "function"
    },
    {
      "inputs": [
        {
          "internalType": "uint256",
          "name": "_dcaScheduleId",
          "type": "uint256"
        }
      ],
      "name": "deleteSchedule",
      "outputs": [],
      "stateMutability": "nonpayable",
      "type": "function"
    },
    {
      "inputs": [
        {
          "internalType": "address",
          "name": "_tokenAddress",
          "type": "address"
        },
        {
          "internalType": "uint256",
          "name": "_tokenAmount",
          "type": "uint256"
        }
      ],
      "name": "depositFunds",
      "outputs": [],
      "stateMutability": "payable",
      "type": "function"
    },
    {
      "inputs": [],
      "name": "depositGas",
      "outputs": [],
      "stateMutability": "payable",
      "type": "function"
    },
    {
      "inputs": [],
      "name": "getAllUsersGasBalances",
      "outputs": [
        {
          "internalType": "uint256",
          "name": "",
          "type": "uint256"
        }
      ],
      "stateMutability": "view",
      "type": "function"
    },
    {
      "inputs": [],
      "name": "getAllUsersSchedules",
      "outputs": [
        {
          "internalType": "address[]",
          "name": "",
          "type": "address[]"
        },
        {
          "internalType": "uint256[]",
          "name": "",
          "type": "uint256[]"
        }
      ],
      "stateMutability": "view",
      "type": "function"
    },
    {
      "inputs": [
        {
          "internalType": "uint256",
          "name": "currGasEstimate",
          "type": "uint256"
        }
      ],
      "name": "getFreeGasBalance",
      "outputs": [
        {
          "internalType": "int256",
          "name": "",
          "type": "int256"
        }
      ],
      "stateMutability": "view",
      "type": "function"
    },
    {
      "inputs": [
        {
          "internalType": "address",
          "name": "_tokenAddress",
          "type": "address"
        }
      ],
      "name": "getFreeTokenBalance",
      "outputs": [
        {
          "internalType": "int256",
          "name": "",
          "type": "int256"
        }
      ],
      "stateMutability": "view",
      "type": "function"
    },
    {
      "inputs": [],
      "name": "getUserAllTokenBalances",
      "outputs": [
        {
          "internalType": "address[]",
          "name": "",
          "type": "address[]"
        },
        {
          "internalType": "uint256[]",
          "name": "",
          "type": "uint256[]"
        },
        {
          "internalType": "int256[]",
          "name": "",
          "type": "int256[]"
        }
      ],
      "stateMutability": "view",
      "type": "function"
    },
    {
      "inputs": [],
      "name": "getUserSchedules",
      "outputs": [
        {
          "components": [
            {
              "internalType": "uint256",
              "name": "tradeFrequency",
              "type": "uint256"
            },
            {
              "internalType": "uint256",
              "name": "tradeAmount",
              "type": "uint256"
            },
            {
              "internalType": "uint256",
              "name": "remainingBudget",
              "type": "uint256"
            },
            {
              "internalType": "address",
              "name": "buyToken",
              "type": "address"
            },
            {
              "internalType": "address",
              "name": "sellToken",
              "type": "address"
            },
            {
              "internalType": "bool",
              "name": "isActive",
              "type": "bool"
            },
            {
              "internalType": "uint256[4]",
              "name": "scheduleDates",
              "type": "uint256[4]"
            },
            {
              "internalType": "uint256",
              "name": "soldAmount",
              "type": "uint256"
            },
            {
              "internalType": "uint256",
              "name": "boughtAmount",
              "type": "uint256"
            },
            {
              "internalType": "uint256",
              "name": "totalGas",
              "type": "uint256"
            }
          ],
          "internalType": "struct UserScheduleData.DcaSchedule[]",
          "name": "",
          "type": "tuple[]"
        }
      ],
      "stateMutability": "view",
      "type": "function"
    },
    {
      "inputs": [],
      "name": "owner",
      "outputs": [
        {
          "internalType": "address",
          "name": "",
          "type": "address"
        }
      ],
      "stateMutability": "view",
      "type": "function"
    },
    {
      "inputs": [],
      "name": "renounceOwnership",
      "outputs": [],
      "stateMutability": "nonpayable",
      "type": "function"
    },
    {
      "inputs": [
        {
          "internalType": "address",
          "name": "dcaOwner",
          "type": "address"
        },
        {
          "internalType": "uint256",
          "name": "scheduleId",
          "type": "uint256"
        },
        {
          "internalType": "uint256",
          "name": "currentGasPrice",
          "type": "uint256"
        },
        {
          "internalType": "uint256",
          "name": "currentDateTime",
          "type": "uint256"
        },
        {
          "internalType": "bytes",
          "name": "swapCallData",
          "type": "bytes"
        },
        {
          "internalType": "address",
          "name": "aggRouter1inch",
          "type": "address"
        }
      ],
      "name": "runUserDCA",
      "outputs": [],
      "stateMutability": "payable",
      "type": "function"
    },
    {
      "inputs": [
        {
          "internalType": "address",
          "name": "newOwner",
          "type": "address"
        }
      ],
      "name": "transferOwnership",
      "outputs": [],
      "stateMutability": "nonpayable",
      "type": "function"
    },
    {
      "inputs": [
        {
          "internalType": "address",
          "name": "",
          "type": "address"
        }
      ],
      "name": "userGasBalances",
      "outputs": [
        {
          "internalType": "uint256",
          "name": "",
          "type": "uint256"
        }
      ],
      "stateMutability": "view",
      "type": "function"
    },
    {
      "inputs": [
        {
          "internalType": "address",
          "name": "",
          "type": "address"
        },
        {
          "internalType": "uint256",
          "name": "",
          "type": "uint256"
        }
      ],
      "name": "userToDcaSchedules",
      "outputs": [
        {
          "internalType": "uint256",
          "name": "tradeFrequency",
          "type": "uint256"
        },
        {
          "internalType": "uint256",
          "name": "tradeAmount",
          "type": "uint256"
        },
        {
          "internalType": "uint256",
          "name": "remainingBudget",
          "type": "uint256"
        },
        {
          "internalType": "address",
          "name": "buyToken",
          "type": "address"
        },
        {
          "internalType": "address",
          "name": "sellToken",
          "type": "address"
        },
        {
          "internalType": "bool",
          "name": "isActive",
          "type": "bool"
        },
        {
          "internalType": "uint256",
          "name": "soldAmount",
          "type": "uint256"
        },
        {
          "internalType": "uint256",
          "name": "boughtAmount",
          "type": "uint256"
        },
        {
          "internalType": "uint256",
          "name": "totalGas",
          "type": "uint256"
        }
      ],
      "stateMutability": "view",
      "type": "function"
    },
    {
      "inputs": [
        {
          "internalType": "address",
          "name": "",
          "type": "address"
        },
        {
          "internalType": "address",
          "name": "",
          "type": "address"
        }
      ],
      "name": "userTokenBalances",
      "outputs": [
        {
          "internalType": "uint256",
          "name": "",
          "type": "uint256"
        }
      ],
      "stateMutability": "view",
      "type": "function"
    },
    {
      "inputs": [
        {
          "internalType": "address",
          "name": "_sellToken",
          "type": "address"
        },
        {
          "internalType": "uint256",
          "name": "_tradeAmount",
          "type": "uint256"
        },
        {
          "internalType": "uint256",
          "name": "_tradeFrequency",
          "type": "uint256"
        },
        {
          "internalType": "uint256",
          "name": "_startDate",
          "type": "uint256"
        },
        {
          "internalType": "uint256",
          "name": "_endDate",
          "type": "uint256"
        },
        {
          "internalType": "uint256",
          "name": "_currGasEstimate",
          "type": "uint256"
        }
      ],
      "name": "validateDcaSchedule",
      "outputs": [],
      "stateMutability": "view",
      "type": "function"
    },
    {
      "inputs": [
        {
          "internalType": "address",
          "name": "_tokenAddress",
          "type": "address"
        },
        {
          "internalType": "uint256",
          "name": "_tokenAmount",
          "type": "uint256"
        }
      ],
      "name": "withdrawFunds",
      "outputs": [],
      "stateMutability": "nonpayable",
      "type": "function"
    },
    {
      "inputs": [
        {
          "internalType": "uint256",
          "name": "_tokenAmount",
          "type": "uint256"
        }
      ],
      "name": "withdrawGas",
      "outputs": [],
      "stateMutability": "nonpayable",
      "type": "function"
    },
    {
      "stateMutability": "payable",
      "type": "receive"
    }
  ],
  "transactionHash": "0x746bc20c3efa628bbef8b0138790945e236509de62dc54d86f1964841f538b10",
  "args": [],
  "numDeployments": 1,
  "solcInputHash": "5373bc889e06a789e0561b8fb3b75b62",
  "bytecode": "0x60806040523480156200001157600080fd5b506200001d3362000028565b600160095562000078565b600080546001600160a01b038381166001600160a01b0319831681178455604051919092169283917f8be0079c531659141344cd1fd0a4f28419497f9722a3daafe3b4186f6b6457e09190a35050565b613bcd80620000886000396000f3fe6080604052600436106101845760003560e01c8063921b004b116100d6578063aef8d6a31161007f578063db289ce811610059578063db289ce814610460578063dcaf298814610480578063f2fde38b146104a357610193565b8063aef8d6a3146103b1578063bd0d3949146103d1578063c10753291461044057610193565b8063a185341e116100b0578063a185341e14610378578063add64c971461038d578063ae9bb6921461019357610193565b8063921b004b14610332578063996b6fa1146103455780639d21bfeb1461035857610193565b80635c576c31116101385780638da5cb5b116101125780638da5cb5b146102ca57806391018107146102f2578063916575441461031257610193565b80635c576c3114610273578063715018a614610293578063886984f1146102a857610193565b806325b217321161016957806325b21732146101db5780634269723f1461020e57806345f2d1051461023b57610193565b80630847e4831461019b5780632554cdba146101bb57610193565b36610193576101916104c3565b005b6101916104c3565b3480156101a757600080fd5b506101916101b6366004613471565b61054e565b3480156101c757600080fd5b506101916101d63660046134a6565b610809565b3480156101e757600080fd5b506101fb6101f6366004613507565b610a4f565b6040519081526020015b60405180910390f35b34801561021a57600080fd5b506101fb610229366004613550565b60036020526000908152604090205481565b34801561024757600080fd5b506101fb61025636600461356b565b600160209081526000928352604080842090915290825290205481565b34801561027f57600080fd5b506101fb61028e36600461359e565b610b20565b34801561029f57600080fd5b50610191610beb565b3480156102b457600080fd5b506102bd610bff565b60405161020591906135f3565b3480156102d657600080fd5b506000546040516001600160a01b039091168152602001610205565b3480156102fe57600080fd5b506101fb61030d3660046136b5565b610d11565b34801561031e57600080fd5b5061019161032d366004613471565b610dda565b6101916103403660046136e1565b610fd0565b610191610353366004613721565b6111c6565b34801561036457600080fd5b506101fb610373366004613550565b6119ba565b34801561038457600080fd5b506101fb611ac0565b34801561039957600080fd5b506103a2611b29565b60405161020593929190613883565b3480156103bd57600080fd5b506101fb6103cc366004613471565b611d18565b3480156103dd57600080fd5b506103f16103ec3660046136e1565b611e39565b60408051998a5260208a0198909852968801959095526001600160a01b039384166060880152929091166080860152151560a085015260c084015260e083015261010082015261012001610205565b34801561044c57600080fd5b5061019161045b3660046136e1565b611eb3565b34801561046c57600080fd5b5061019161047b3660046138ec565b6120f8565b34801561048c57600080fd5b506104956121bf565b604051610205929190613936565b3480156104af57600080fd5b506101916104be366004613550565b612322565b3360009081526003602052604090205434906104e090829061397a565b336000818152600360205260409020919091556104fc906123af565b6040805173eeeeeeeeeeeeeeeeeeeeeeeeeeeeeeeeeeeeeeee81526020810183905233917ff0d0e99cae184d0187b093b48894117462462379674a6e11d89c3fbb618e96b0910160405180910390a250565b33600090815260066020526040902080548290811061056f5761056f613992565b600091825260208220600c90910201818155600181018290556002810182905560038101805473ffffffffffffffffffffffffffffffffffffffff1916905560048101805474ffffffffffffffffffffffffffffffffffffffffff19169055600581018290556006810182905560078101829055600881018290559050600060098201819055600a8201819055600b909101819055338152600660205260409020805461061e906001906139a8565b8154811061062e5761062e613992565b90600052602060002090600c020160066000336001600160a01b03166001600160a01b03168152602001908152602001600020828154811061067257610672613992565b600091825260209091208254600c909202019081556001808301549082015560028083015490820155600380830154908201805473ffffffffffffffffffffffffffffffffffffffff199081166001600160a01b0393841617909155600480850180548286018054948516919095169081178555905460ff600160a01b918290041615150274ffffffffffffffffffffffffffffffffffffffffff19909316179190911790915561072c90600580840191908501906133f3565b5060098281015490820155600a8083015490820155600b91820154910155336000908152600660205260409020805480610768576107686139bf565b600082815260208120600c6000199390930192830201818155600181018290556002810182905560038101805473ffffffffffffffffffffffffffffffffffffffff1916905560048101805474ffffffffffffffffffffffffffffffffffffffffff191690556005810182905560068101829055600781018290556008810182905560098101829055600a8101829055600b015590556108066123be565b50565b6000610816888585610d11565b9050600061082482896139d5565b905061083486898b8888886120f8565b61083c6123dd565b61084633886123e8565b60066000336001600160a01b03166001600160a01b031681526020019081526020016000206040518061014001604052808b81526020018a8152602001838152602001896001600160a01b03168152602001886001600160a01b031681526020016001151581526020016040518060800160405280898152602001600081526020018981526020018881525081526020016000815260200160008152602001600081525090806001815401808255809150506001900390600052602060002090600c020160009091909190915060008201518160000155602082015181600101556040820151816002015560608201518160030160006101000a8154816001600160a01b0302191690836001600160a01b0316021790555060808201518160040160006101000a8154816001600160a01b0302191690836001600160a01b0316021790555060a08201518160040160146101000a81548160ff02191690831515021790555060c0820151816005019060046109c292919061342e565b5060e08201516009820155610100820151600a82015561012090910151600b9091015533600081815260066020526040902054610a01906001906139a8565b604080516001600160a01b03808c1682528a1660208201527f02c7cf82c34b568fd76896e8da79a4de6ce78cd85af0a1c5321205a2781ba4c1910160405180910390a3505050505050505050565b600080610a5d868686610d11565b905060008111610a9f5760405162461bcd60e51b8152602060048201526008602482015267496e76616c69642160c01b60448201526064015b60405180910390fd5b60008711610ad85760405162461bcd60e51b81526020600482015260066024820152654e6f7420302160d01b6044820152606401610a96565b6000610ae482896139d5565b90506000610af1856119ba565b9050600080610b0083856139f4565b1315610b1357610b1082846139f4565b90505b9998505050505050505050565b600080610b2e858585610d11565b905060008111610b6b5760405162461bcd60e51b8152602060048201526008602482015267496e76616c69642160c01b6044820152606401610a96565b60008611610ba45760405162461bcd60e51b81526020600482015260066024820152654e6f7420302160d01b6044820152606401610a96565b6000610bb082886139d5565b90506000610bbd88611d18565b9050600080610bcc83856139f4565b1315610bdf57610bdc82846139f4565b90505b98975050505050505050565b610bf3612435565b610bfd600061248f565b565b336000908152600660209081526040808320805482518185028101850190935280835260609492939192909184015b82821015610d085760008481526020908190206040805161014081018252600c86029092018054835260018101549383019390935260028301548282015260038301546001600160a01b039081166060840152600480850154918216608080860191909152600160a01b90920460ff16151560a085015282519182019283905292939260c085019260058501919082845b815481526020019060010190808311610cbf575050505050815260200160098201548152602001600a8201548152602001600b8201548152505081526020019060010190610c2e565b50505050905090565b6000828211610d625760405162461bcd60e51b815260206004820152600e60248201527f496e76616c6964206461746573210000000000000000000000000000000000006044820152606401610a96565b83610d6d84846139a8565b1015610dbb5760405162461bcd60e51b815260206004820152600d60248201527f496e76616c6964206578656321000000000000000000000000000000000000006044820152606401610a96565b83610dc684846139a8565b610dd09190613a4c565b90505b9392505050565b60026009541415610e2d5760405162461bcd60e51b815260206004820152601f60248201527f5265656e7472616e637947756172643a207265656e7472616e742063616c6c006044820152606401610a96565b600260095533600090815260036020526040902054811115610eb75760405162461bcd60e51b815260206004820152602860248201527f43616e6e6f74207769746864726177206d6f726520676173207468616e20646560448201527f706f7369746564210000000000000000000000000000000000000000000000006064820152608401610a96565b33600090815260036020526040902054610ed29082906139a8565b3360008181526003602052604080822093909355915183908381818185875af1925050503d8060008114610f22576040519150601f19603f3d011682016040523d82523d6000602084013e610f27565b606091505b5050905080610f785760405162461bcd60e51b815260206004820152601360248201527f7769746864726177476173206661696c656421000000000000000000000000006044820152606401610a96565b6040805173eeeeeeeeeeeeeeeeeeeeeeeeeeeeeeeeeeeeeeee81526020810184905233917fa92ff919b850e4909ab2261d907ef955f11bc1716733a6cbece38d163a69af8a910160405180910390a250506001600955565b60006001600160a01b03831673eeeeeeeeeeeeeeeeeeeeeeeeeeeeeeeeeeeeeeee1415610ffe57503461111d565b6040516370a0823160e01b815230600482015283906000906001600160a01b038316906370a082319060240160206040518083038186803b15801561104257600080fd5b505afa158015611056573d6000803e3d6000fd5b505050506040513d601f19601f8201168201806040525081019061107a9190613a6e565b90506110916001600160a01b0383163330876124ec565b6040516370a0823160e01b81523060048201526000906001600160a01b038416906370a082319060240160206040518083038186803b1580156110d357600080fd5b505afa1580156110e7573d6000803e3d6000fd5b505050506040513d601f19601f8201168201806040525081019061110b9190613a6e565b905061111782826139a8565b93505050505b3360009081526001602090815260408083206001600160a01b038716845290915290205461114c90829061397a565b3360008181526001602090815260408083206001600160a01b038916845290915290209190915561117d90846123e8565b604080516001600160a01b03851681526020810183905233917ff0d0e99cae184d0187b093b48894117462462379674a6e11d89c3fbb618e96b0910160405180910390a2505050565b6111ce612435565b60005a6001600160a01b038816600090815260036020526040902054909150851061123b5760405162461bcd60e51b815260206004820152600860248201527f4c6f7720476173210000000000000000000000000000000000000000000000006044820152606401610a96565b6001600160a01b038716600090815260066020526040902080548790811061126557611265613992565b90600052602060002090600c020160050160026004811061128857611288613992565b01548410156112d95760405162461bcd60e51b815260206004820152600a60248201527f4e6f7420526561647921000000000000000000000000000000000000000000006044820152606401610a96565b6001600160a01b038716600090815260066020526040902080548790811061130357611303613992565b90600052602060002090600c020160040160149054906101000a900460ff16151560011515146113755760405162461bcd60e51b815260206004820152600960248201527f436f6d706c6574652100000000000000000000000000000000000000000000006044820152606401610a96565b6001600160a01b038716600090815260066020526040812080548890811061139f5761139f613992565b600091825260208083206004600c9093020191909101546001600160a01b038b81168452600690925260408320805492909116935090899081106113e5576113e5613992565b600091825260208083206001600c909302018201546001600160a01b03808e168552928252604080852093871685529290915291205490915081111561146d5760405162461bcd60e51b815260206004820152600c60248201527f4c6f772042616c616e63652100000000000000000000000000000000000000006044820152606401610a96565b6001600160a01b038916600090815260066020526040812080548a90811061149757611497613992565b90600052602060002090600c020160020154116114f65760405162461bcd60e51b815260206004820152601260248201527f5363686564756c6520636f6d706c6574652100000000000000000000000000006044820152606401610a96565b6001600160a01b03891660009081526006602052604081208054849291908b90811061152457611524613992565b600091825260209091206003600c9092020101546001600160a01b03169050611569826001600160a01b031673eeeeeeeeeeeeeeeeeeeeeeeeeeeeeeeeeeeeeeee1490565b6116ac576040517fdd62ed3e0000000000000000000000000000000000000000000000000000000081523060048201526001600160a01b03878116602483015284919084169063dd62ed3e9060440160206040518083038186803b1580156115d057600080fd5b505afa1580156115e4573d6000803e3d6000fd5b505050506040513d601f19601f820116820180604052508101906116089190613a6e565b10156116ac576040517f095ea7b30000000000000000000000000000000000000000000000000000000081526001600160a01b038781166004830152600019602483015283169063095ea7b390604401602060405180830381600087803b15801561167257600080fd5b505af1158015611686573d6000803e3d6000fd5b505050506040513d601f19601f820116820180604052508101906116aa9190613a87565b505b600073eeeeeeeeeeeeeeeeeeeeeeeeeeeeeeeeeeeeeeee6001600160a01b03831614611750576040516370a0823160e01b81523060048201526001600160a01b038316906370a082319060240160206040518083038186803b15801561171157600080fd5b505afa158015611725573d6000803e3d6000fd5b505050506040513d601f19601f820116820180604052508101906117499190613a6e565b9050611753565b50475b600073eeeeeeeeeeeeeeeeeeeeeeeeeeeeeeeeeeeeeeee6001600160a01b038516146117f7576040516370a0823160e01b81523060048201526001600160a01b038516906370a082319060240160206040518083038186803b1580156117b857600080fd5b505afa1580156117cc573d6000803e3d6000fd5b505050506040513d601f19601f820116820180604052508101906117f09190613a6e565b90506117fa565b50475b6000808a5160208c01348c5af13d6000803e8080156118185761181d565b3d6000fd5b505073eeeeeeeeeeeeeeeeeeeeeeeeeeeeeeeeeeeeeeee6001600160a01b038416146118cd576040516370a0823160e01b815230600482015282906001600160a01b038516906370a082319060240160206040518083038186803b15801561188457600080fd5b505afa158015611898573d6000803e3d6000fd5b505050506040513d601f19601f820116820180604052508101906118bc9190613a6e565b6118c691906139a8565b91506118da565b6118d782476139a8565b91505b73eeeeeeeeeeeeeeeeeeeeeeeeeeeeeeeeeeeeeeee6001600160a01b03851614611986576040516370a0823160e01b81523060048201526001600160a01b038516906370a082319060240160206040518083038186803b15801561193d57600080fd5b505afa158015611951573d6000803e3d6000fd5b505050506040513d601f19601f820116820180604052508101906119759190613a6e565b61197f90826139a8565b9050611993565b61199047826139a8565b90505b6119ab8d8d83855a6119a5908d6139a8565b8f6125a3565b50505050505050505050505050565b6000806119c5610bff565b3360009081526001602090815260408083206001600160a01b03881684529091528120548251929350916119fa575080611ab8565b6000805b8451811015611aa957866001600160a01b0316858281518110611a2357611a23613992565b6020026020010151608001516001600160a01b0316148015611a665750848181518110611a5257611a52613992565b602002602001015160a00151151560011515145b15611a9757848181518110611a7d57611a7d613992565b60200260200101516040015182611a949190613aa9565b91505b80611aa181613b01565b9150506119fe565b50611ab481846139f4565b9150505b949350505050565b600080611acd6004612fa7565b90506000805b82811015611b225760036000611aea600484612fb7565b6001600160a01b03168152602081019190915260400160002054611b0e908361397a565b915080611b1a81613b01565b915050611ad3565b5092915050565b60608060606000611b38612fc3565b905060008167ffffffffffffffff811115611b5557611b5561370b565b604051908082528060200260200182016040528015611b7e578160200160208202803683370190505b50905060008267ffffffffffffffff811115611b9c57611b9c61370b565b604051908082528060200260200182016040528015611bc5578160200160208202803683370190505b50905060008367ffffffffffffffff811115611be357611be361370b565b604051908082528060200260200182016040528015611c0c578160200160208202803683370190505b50905060005b84811015611d0a57611c2381612fe0565b848281518110611c3557611c35613992565b6001600160a01b039092166020928302919091018201523360009081526001909152604081208551909190869084908110611c7257611c72613992565b60200260200101516001600160a01b03166001600160a01b0316815260200190815260200160002054838281518110611cad57611cad613992565b602002602001018181525050611cdb848281518110611cce57611cce613992565b60200260200101516119ba565b828281518110611ced57611ced613992565b602090810291909101015280611d0281613b01565b915050611c12565b509196909550909350915050565b600080611d23610bff565b33600090815260036020526040812054825192935091611d44575080611ab8565b6000805b8451811015611aa957848181518110611d6357611d63613992565b602002602001015160a001511515600115151415611e27576000611e0d868381518110611d9257611d92613992565b602002602001015160000151878481518110611db057611db0613992565b602002602001015160c00151600260048110611dce57611dce613992565b6020020151888581518110611de557611de5613992565b602002602001015160c00151600360048110611e0357611e03613992565b6020020151610d11565b9050611e1988826139d5565b611e239084613aa9565b9250505b80611e3181613b01565b915050611d48565b60066020528160005260406000208181548110611e5557600080fd5b60009182526020909120600c90910201805460018201546002830154600384015460048501546009860154600a870154600b9097015495985093965091946001600160a01b039182169491831693600160a01b90930460ff16929189565b60026009541415611f065760405162461bcd60e51b815260206004820152601f60248201527f5265656e7472616e637947756172643a207265656e7472616e742063616c6c006044820152606401610a96565b60026009553360009081526001602090815260408083206001600160a01b038616845290915290205481811015611fa45760405162461bcd60e51b8152602060048201526024808201527f43616e6e6f74207769746864726177206d6f7265207468616e206465706f736960448201527f74656421000000000000000000000000000000000000000000000000000000006064820152608401610a96565b3360009081526001602090815260408083206001600160a01b038716845290915281208054849290611fd79084906139a8565b90915550506001600160a01b03831673eeeeeeeeeeeeeeeeeeeeeeeeeeeeeeeeeeeeeeee141561209f57604051600090339084908381818185875af1925050503d8060008114612043576040519150601f19603f3d011682016040523d82523d6000602084013e612048565b606091505b50509050806120995760405162461bcd60e51b815260206004820152601560248201527f776974686472617746756e6473206661696c65642100000000000000000000006044820152606401610a96565b506120aa565b6120aa833384612ff9565b604080516001600160a01b03851681526020810184905233917fa92ff919b850e4909ab2261d907ef955f11bc1716733a6cbece38d163a69af8a910160405180910390a25050600160095550565b6000612107868686868b610a4f565b905080156121575760405162461bcd60e51b815260206004820152600860248201527f4c6f772062616c210000000000000000000000000000000000000000000000006044820152606401610a96565b600061216583878787610b20565b905080156121b55760405162461bcd60e51b815260206004820152600860248201527f4c6f7720676173210000000000000000000000000000000000000000000000006044820152606401610a96565b5050505050505050565b60608060006121ce6007612fa7565b905060008167ffffffffffffffff8111156121eb576121eb61370b565b604051908082528060200260200182016040528015612214578160200160208202803683370190505b50905060008267ffffffffffffffff8111156122325761223261370b565b60405190808252806020026020018201604052801561225b578160200160208202803683370190505b50905060005b8381101561231757612274600782612fb7565b83828151811061228657612286613992565b60200260200101906001600160a01b031690816001600160a01b031681525050600660008483815181106122bc576122bc613992565b60200260200101516001600160a01b03166001600160a01b03168152602001908152602001600020805490508282815181106122fa576122fa613992565b60209081029190910101528061230f81613b01565b915050612261565b509094909350915050565b61232a612435565b6001600160a01b0381166123a65760405162461bcd60e51b815260206004820152602660248201527f4f776e61626c653a206e6577206f776e657220697320746865207a65726f206160448201527f64647265737300000000000000000000000000000000000000000000000000006064820152608401610a96565b6108068161248f565b6123ba600482613042565b5050565b33600090815260066020526040902054610bfd57610806600733613057565b610806600733613042565b6001600160a01b038216600090815260026020526040902061240a908261306c565b6123ba576001600160a01b03821660009081526002602052604090206124309082613042565b505050565b6000546001600160a01b03163314610bfd5760405162461bcd60e51b815260206004820181905260248201527f4f776e61626c653a2063616c6c6572206973206e6f7420746865206f776e65726044820152606401610a96565b600080546001600160a01b0383811673ffffffffffffffffffffffffffffffffffffffff19831681178455604051919092169283917f8be0079c531659141344cd1fd0a4f28419497f9722a3daafe3b4186f6b6457e09190a35050565b6040516001600160a01b038085166024830152831660448201526064810182905261259d9085907f23b872dd00000000000000000000000000000000000000000000000000000000906084015b60408051601f198184030181529190526020810180517bffffffffffffffffffffffffffffffffffffffffffffffffffffffff167fffffffff000000000000000000000000000000000000000000000000000000009093169290921790915261308e565b50505050565b600260095414156125f65760405162461bcd60e51b815260206004820152601f60248201527f5265656e7472616e637947756172643a207265656e7472616e742063616c6c006044820152606401610a96565b6002600955612603612435565b60005a6001600160a01b0388166000908152600660205260409020805491925086918890811061263557612635613992565b90600052602060002090600c02016002015461265191906139a8565b6001600160a01b038816600090815260066020526040902080548890811061267b5761267b613992565b600091825260208083206002600c9093020191909101929092556001600160a01b038916815260018252604080822060069093528120805488939291908a9081106126c8576126c8613992565b600091825260208083206004600c9093020191909101546001600160a01b0316835282019290925260400190205461270091906139a8565b6001600160a01b03881660009081526001602090815260408083206006909252822080549192918a90811061273757612737613992565b600091825260208083206004600c9093020191909101546001600160a01b039081168452838201949094526040928301822094909455918a16825260069092522080548790811061278a5761278a613992565b90600052602060002090600c02016005016002600481106127ad576127ad613992565b01546001600160a01b03881660009081526006602052604090208054889081106127d9576127d9613992565b90600052602060002090600c02016005016001600481106127fc576127fc613992565b01556001600160a01b038716600090815260066020526040902080548790811061282857612828613992565b90600052602060002090600c02016002015460001415612899576001600160a01b038716600090815260066020526040812080548890811061286c5761286c613992565b90600052602060002090600c020160040160146101000a81548160ff021916908315150217905550612aba565b6001600160a01b0387166000908152600660205260408120805461297c9190899081106128c8576128c8613992565b60009182526020808320600c909202909101546001600160a01b038c1683526006909152604090912080548a90811061290357612903613992565b90600052602060002090600c020160050160026004811061292657612926613992565b01546001600160a01b038b16600090815260066020526040902080548b90811061295257612952613992565b90600052602060002090600c020160050160036004811061297557612975613992565b0154610d11565b6001600160a01b0389166000908152600660205260409020805491925090889081106129aa576129aa613992565b90600052602060002090600c020160000154836129c7919061397a565b6001600160a01b03891660009081526006602052604090208054899081106129f1576129f1613992565b90600052602060002090600c0201600501600260048110612a1457612a14613992565b01556001600160a01b0388166000908152600660205260409020805482919089908110612a4357612a43613992565b90600052602060002090600c020160000154612a5f91906139d5565b612a69908461397a565b6001600160a01b0389166000908152600660205260409020805489908110612a9357612a93613992565b90600052602060002090600c0201600501600360048110612ab657612ab6613992565b0155505b6001600160a01b0387166000908152600160209081526040808320600690925282208054879391908a908110612af257612af2613992565b600091825260208083206003600c9093020191909101546001600160a01b03168352820192909252604001902054612b2a919061397a565b6001600160a01b03881660009081526001602090815260408083206006909252822080549192918a908110612b6157612b61613992565b600091825260208083206003600c9093020191909101546001600160a01b039081168452838201949094526040928301822094909455918a168252600690925220805483919088908110612bb757612bb7613992565b90600052602060002090600c0201600501600160048110612bda57612bda613992565b01556001600160a01b0387166000908152600660205260409020805486919088908110612c0957612c09613992565b90600052602060002090600c02016009016000828254612c29919061397a565b90915550506001600160a01b0387166000908152600660205260409020805485919088908110612c5b57612c5b613992565b90600052602060002090600c0201600a016000828254612c7b919061397a565b90915550600090503a5a612c8f90846139a8565b612c99908661397a565b612ca391906139d5565b6001600160a01b038916600090815260036020526040812080549293508392909190612cd09084906139a8565b90915550506001600160a01b0388166000908152600660205260409020805482919089908110612d0257612d02613992565b90600052602060002090600c0201600b016000828254612d22919061397a565b9091555050604051600090339083908381818185875af1925050503d8060008114612d69576040519150601f19603f3d011682016040523d82523d6000602084013e612d6e565b606091505b5050905080612dbf5760405162461bcd60e51b815260206004820152601260248201527f47617320726566756e64206661696c65642100000000000000000000000000006044820152606401610a96565b6001600160a01b038916600090815260066020526040812080548a908110612de957612de9613992565b60009182526020918290206040805161014081018252600c939093029091018054835260018101549383019390935260028301548282015260038301546001600160a01b039081166060840152600480850154918216608080860191909152600160a01b90920460ff16151560a085015282519182019283905292939260c085019260058501919082845b815481526020019060010190808311612e74575050505050815260200160098201548152602001600a8201548152602001600b8201548152505090506000600360008c6001600160a01b03166001600160a01b031681526020019081526020016000205490508a6001600160a01b03168a7f7330fde8068b0dd384e32e6f7deb7ed2599b5cbc5d856011d3f958d528ef5540846080015185606001518d8d88604001518960a001518c8a8c60c00151600260048110612f3557612f35613992565b60209081029190910151604080516001600160a01b039b8c1681529a909916918a01919091529688019590955260608701939093526080860191909152151560a085015260c084015260e08301526101008201526101200160405180910390a350506001600955505050505050505050565b6000612fb1825490565b92915050565b6000610dd38383613173565b336000908152600260205260408120612fdb90612fa7565b905090565b336000908152600260205260408120612fb19083612fb7565b6040516001600160a01b0383166024820152604481018290526124309084907fa9059cbb0000000000000000000000000000000000000000000000000000000090606401612539565b6000610dd3836001600160a01b03841661319d565b6000610dd3836001600160a01b0384166131ec565b6001600160a01b03811660009081526001830160205260408120541515610dd3565b60006130e3826040518060400160405280602081526020017f5361666545524332303a206c6f772d6c6576656c2063616c6c206661696c6564815250856001600160a01b03166132df9092919063ffffffff16565b80519091501561243057808060200190518101906131019190613a87565b6124305760405162461bcd60e51b815260206004820152602a60248201527f5361666545524332303a204552433230206f7065726174696f6e20646964206e60448201527f6f742073756363656564000000000000000000000000000000000000000000006064820152608401610a96565b600082600001828154811061318a5761318a613992565b9060005260206000200154905092915050565b60008181526001830160205260408120546131e457508154600181810184556000848152602080822090930184905584548482528286019093526040902091909155612fb1565b506000612fb1565b600081815260018301602052604081205480156132d55760006132106001836139a8565b8554909150600090613224906001906139a8565b905081811461328957600086600001828154811061324457613244613992565b906000526020600020015490508087600001848154811061326757613267613992565b6000918252602080832090910192909255918252600188019052604090208390555b855486908061329a5761329a6139bf565b600190038181906000526020600020016000905590558560010160008681526020019081526020016000206000905560019350505050612fb1565b6000915050612fb1565b6060610dd08484600085856001600160a01b0385163b6133415760405162461bcd60e51b815260206004820152601d60248201527f416464726573733a2063616c6c20746f206e6f6e2d636f6e74726163740000006044820152606401610a96565b600080866001600160a01b0316858760405161335d9190613b48565b60006040518083038185875af1925050503d806000811461339a576040519150601f19603f3d011682016040523d82523d6000602084013e61339f565b606091505b50915091506133af8282866133ba565b979650505050505050565b606083156133c9575081610dd3565b8251156133d95782518084602001fd5b8160405162461bcd60e51b8152600401610a969190613b64565b826004810192821561341e579182015b8281111561341e578254825591600101919060010190613403565b5061342a92915061345c565b5090565b826004810192821561341e579160200282015b8281111561341e578251825591602001919060010190613441565b5b8082111561342a576000815560010161345d565b60006020828403121561348357600080fd5b5035919050565b80356001600160a01b03811681146134a157600080fd5b919050565b600080600080600080600060e0888a0312156134c157600080fd5b87359650602088013595506134d86040890161348a565b94506134e66060890161348a565b9699959850939660808101359560a0820135955060c0909101359350915050565b600080600080600060a0868803121561351f57600080fd5b853594506020860135935060408601359250606086013591506135446080870161348a565b90509295509295909350565b60006020828403121561356257600080fd5b610dd38261348a565b6000806040838503121561357e57600080fd5b6135878361348a565b91506135956020840161348a565b90509250929050565b600080600080608085870312156135b457600080fd5b5050823594602084013594506040840135936060013592509050565b8060005b600481101561259d5781518452602093840193909101906001016135d4565b602080825282518282018190526000919060409081850190868401855b828110156136a857815180518552868101518786015285810151868601526060808201516001600160a01b03908116918701919091526080808301519091169086015260a08082015115159086015260c080820151613671828801826135d0565b505060e081015161014086015261010081015161016086015261012001516101808501526101a09093019290850190600101613610565b5091979650505050505050565b6000806000606084860312156136ca57600080fd5b505081359360208301359350604090920135919050565b600080604083850312156136f457600080fd5b6136fd8361348a565b946020939093013593505050565b634e487b7160e01b600052604160045260246000fd5b60008060008060008060c0878903121561373a57600080fd5b6137438761348a565b9550602087013594506040870135935060608701359250608087013567ffffffffffffffff8082111561377557600080fd5b818901915089601f83011261378957600080fd5b81358181111561379b5761379b61370b565b604051601f8201601f19908116603f011681019083821181831017156137c3576137c361370b565b816040528281528c60208487010111156137dc57600080fd5b82602086016020830137600060208483010152809650505050505061380360a0880161348a565b90509295509295509295565b600081518084526020808501945080840160005b838110156138485781516001600160a01b031687529582019590820190600101613823565b509495945050505050565b600081518084526020808501945080840160005b8381101561384857815187529582019590820190600101613867565b606081526000613896606083018661380f565b6020838203818501526138a98287613853565b8481036040860152855180825282870193509082019060005b818110156138de578451835293830193918301916001016138c2565b509098975050505050505050565b60008060008060008060c0878903121561390557600080fd5b61390e8761348a565b9860208801359850604088013597606081013597506080810135965060a00135945092505050565b604081526000613949604083018561380f565b828103602084015261395b8185613853565b95945050505050565b634e487b7160e01b600052601160045260246000fd5b6000821982111561398d5761398d613964565b500190565b634e487b7160e01b600052603260045260246000fd5b6000828210156139ba576139ba613964565b500390565b634e487b7160e01b600052603160045260246000fd5b60008160001904831182151516156139ef576139ef613964565b500290565b600080831283600160ff1b01831281151615613a1257613a12613964565b837f7fffffffffffffffffffffffffffffffffffffffffffffffffffffffffffffff018313811615613a4657613a46613964565b50500390565b600082613a6957634e487b7160e01b600052601260045260246000fd5b500490565b600060208284031215613a8057600080fd5b5051919050565b600060208284031215613a9957600080fd5b81518015158114610dd357600080fd5b6000808212827f7fffffffffffffffffffffffffffffffffffffffffffffffffffffffffffffff03841381151615613ae357613ae3613964565b82600160ff1b038412811615613afb57613afb613964565b50500190565b6000600019821415613b1557613b15613964565b5060010190565b60005b83811015613b37578181015183820152602001613b1f565b8381111561259d5750506000910152565b60008251613b5a818460208701613b1c565b9190910192915050565b6020815260008251806020840152613b83816040850160208701613b1c565b601f01601f1916919091016040019291505056fea2646970667358221220c71645f89b460aaf3c7e7e9359fec8d7112d37c7376858b99db797d5c62400d864736f6c63430008090033",
  "devdoc": {
    "custom:security-contact": "admin@dcastack.com",
    "kind": "dev",
    "methods": {
      "owner()": {
        "details": "Returns the address of the current owner."
      },
      "renounceOwnership()": {
        "details": "Leaves the contract without owner. It will not be possible to call `onlyOwner` functions anymore. Can only be called by the current owner. NOTE: Renouncing ownership will leave the contract without an owner, thereby removing any functionality that is only available to the owner."
      },
      "transferOwnership(address)": {
        "details": "Transfers ownership of the contract to a new account (`newOwner`). Can only be called by the current owner."
      }
    },
    "version": 1
  },
  "userdoc": {
    "kind": "user",
    "methods": {},
    "version": 1
  },
  "storageLayout": {
    "storage": [
      {
        "astId": 7,
        "contract": "contracts/DCAStack.sol:DCAStack",
        "label": "_owner",
        "offset": 0,
        "slot": "0",
        "type": "t_address"
      },
      {
        "astId": 1504,
        "contract": "contracts/DCAStack.sol:DCAStack",
        "label": "userTokenBalances",
        "offset": 0,
        "slot": "1",
        "type": "t_mapping(t_address,t_mapping(t_address,t_uint256))"
      },
      {
        "astId": 1509,
        "contract": "contracts/DCAStack.sol:DCAStack",
        "label": "_userTokens",
        "offset": 0,
        "slot": "2",
        "type": "t_mapping(t_address,t_struct(AddressSet)1176_storage)"
      },
      {
        "astId": 1513,
        "contract": "contracts/DCAStack.sol:DCAStack",
        "label": "userGasBalances",
        "offset": 0,
        "slot": "3",
        "type": "t_mapping(t_address,t_uint256)"
      },
      {
        "astId": 1516,
        "contract": "contracts/DCAStack.sol:DCAStack",
        "label": "_userGasAddresses",
        "offset": 0,
        "slot": "4",
        "type": "t_struct(AddressSet)1176_storage"
      },
      {
        "astId": 1983,
        "contract": "contracts/DCAStack.sol:DCAStack",
        "label": "userToDcaSchedules",
        "offset": 0,
        "slot": "6",
        "type": "t_mapping(t_address,t_array(t_struct(DcaSchedule)1977_storage)dyn_storage)"
      },
      {
        "astId": 1986,
        "contract": "contracts/DCAStack.sol:DCAStack",
        "label": "_userAddresses",
        "offset": 0,
        "slot": "7",
        "type": "t_struct(AddressSet)1176_storage"
      },
      {
        "astId": 123,
        "contract": "contracts/DCAStack.sol:DCAStack",
        "label": "_status",
        "offset": 0,
        "slot": "9",
        "type": "t_uint256"
      }
    ],
    "types": {
      "t_address": {
        "encoding": "inplace",
        "label": "address",
        "numberOfBytes": "20"
      },
      "t_array(t_bytes32)dyn_storage": {
        "base": "t_bytes32",
        "encoding": "dynamic_array",
        "label": "bytes32[]",
        "numberOfBytes": "32"
      },
      "t_array(t_struct(DcaSchedule)1977_storage)dyn_storage": {
        "base": "t_struct(DcaSchedule)1977_storage",
        "encoding": "dynamic_array",
        "label": "struct UserScheduleData.DcaSchedule[]",
        "numberOfBytes": "32"
      },
      "t_array(t_uint256)4_storage": {
        "base": "t_uint256",
        "encoding": "inplace",
        "label": "uint256[4]",
        "numberOfBytes": "128"
      },
      "t_bool": {
        "encoding": "inplace",
        "label": "bool",
        "numberOfBytes": "1"
      },
      "t_bytes32": {
        "encoding": "inplace",
        "label": "bytes32",
        "numberOfBytes": "32"
      },
      "t_mapping(t_address,t_array(t_struct(DcaSchedule)1977_storage)dyn_storage)": {
        "encoding": "mapping",
        "key": "t_address",
        "label": "mapping(address => struct UserScheduleData.DcaSchedule[])",
        "numberOfBytes": "32",
        "value": "t_array(t_struct(DcaSchedule)1977_storage)dyn_storage"
      },
      "t_mapping(t_address,t_mapping(t_address,t_uint256))": {
        "encoding": "mapping",
        "key": "t_address",
        "label": "mapping(address => mapping(address => uint256))",
        "numberOfBytes": "32",
        "value": "t_mapping(t_address,t_uint256)"
      },
      "t_mapping(t_address,t_struct(AddressSet)1176_storage)": {
        "encoding": "mapping",
        "key": "t_address",
        "label": "mapping(address => struct EnumerableSet.AddressSet)",
        "numberOfBytes": "32",
        "value": "t_struct(AddressSet)1176_storage"
      },
      "t_mapping(t_address,t_uint256)": {
        "encoding": "mapping",
        "key": "t_address",
        "label": "mapping(address => uint256)",
        "numberOfBytes": "32",
        "value": "t_uint256"
      },
      "t_mapping(t_bytes32,t_uint256)": {
        "encoding": "mapping",
        "key": "t_bytes32",
        "label": "mapping(bytes32 => uint256)",
        "numberOfBytes": "32",
        "value": "t_uint256"
      },
      "t_struct(AddressSet)1176_storage": {
        "encoding": "inplace",
        "label": "struct EnumerableSet.AddressSet",
        "members": [
          {
            "astId": 1175,
            "contract": "contracts/DCAStack.sol:DCAStack",
            "label": "_inner",
            "offset": 0,
            "slot": "0",
            "type": "t_struct(Set)875_storage"
          }
        ],
        "numberOfBytes": "64"
      },
      "t_struct(DcaSchedule)1977_storage": {
        "encoding": "inplace",
        "label": "struct UserScheduleData.DcaSchedule",
        "members": [
          {
            "astId": 1956,
            "contract": "contracts/DCAStack.sol:DCAStack",
            "label": "tradeFrequency",
            "offset": 0,
            "slot": "0",
            "type": "t_uint256"
          },
          {
            "astId": 1958,
            "contract": "contracts/DCAStack.sol:DCAStack",
            "label": "tradeAmount",
            "offset": 0,
            "slot": "1",
            "type": "t_uint256"
          },
          {
            "astId": 1960,
            "contract": "contracts/DCAStack.sol:DCAStack",
            "label": "remainingBudget",
            "offset": 0,
            "slot": "2",
            "type": "t_uint256"
          },
          {
            "astId": 1962,
            "contract": "contracts/DCAStack.sol:DCAStack",
            "label": "buyToken",
            "offset": 0,
            "slot": "3",
            "type": "t_address"
          },
          {
            "astId": 1964,
            "contract": "contracts/DCAStack.sol:DCAStack",
            "label": "sellToken",
            "offset": 0,
            "slot": "4",
            "type": "t_address"
          },
          {
            "astId": 1966,
            "contract": "contracts/DCAStack.sol:DCAStack",
            "label": "isActive",
            "offset": 20,
            "slot": "4",
            "type": "t_bool"
          },
          {
            "astId": 1970,
            "contract": "contracts/DCAStack.sol:DCAStack",
            "label": "scheduleDates",
            "offset": 0,
            "slot": "5",
            "type": "t_array(t_uint256)4_storage"
          },
          {
            "astId": 1972,
            "contract": "contracts/DCAStack.sol:DCAStack",
            "label": "soldAmount",
            "offset": 0,
            "slot": "9",
            "type": "t_uint256"
          },
          {
            "astId": 1974,
            "contract": "contracts/DCAStack.sol:DCAStack",
            "label": "boughtAmount",
            "offset": 0,
            "slot": "10",
            "type": "t_uint256"
          },
          {
            "astId": 1976,
            "contract": "contracts/DCAStack.sol:DCAStack",
            "label": "totalGas",
            "offset": 0,
            "slot": "11",
            "type": "t_uint256"
          }
        ],
        "numberOfBytes": "384"
      },
      "t_struct(Set)875_storage": {
        "encoding": "inplace",
        "label": "struct EnumerableSet.Set",
        "members": [
          {
            "astId": 870,
            "contract": "contracts/DCAStack.sol:DCAStack",
            "label": "_values",
            "offset": 0,
            "slot": "0",
            "type": "t_array(t_bytes32)dyn_storage"
          },
          {
            "astId": 874,
            "contract": "contracts/DCAStack.sol:DCAStack",
            "label": "_indexes",
            "offset": 0,
            "slot": "1",
            "type": "t_mapping(t_bytes32,t_uint256)"
          }
        ],
        "numberOfBytes": "64"
      },
      "t_uint256": {
        "encoding": "inplace",
        "label": "uint256",
        "numberOfBytes": "32"
      }
    }
  }
}