{
  "address": "0x9c65f85425c619A6cB6D29fF8d57ef696323d188",
  "abi": [
    {
      "anonymous": false,
      "inputs": [
        {
          "indexed": true,
          "internalType": "uint256",
          "name": "dcaScheduleId",
          "type": "uint256"
        },
        {
          "indexed": false,
          "internalType": "address",
          "name": "sellToken",
          "type": "address"
        },
        {
          "indexed": false,
          "internalType": "address",
          "name": "buyToken",
          "type": "address"
        },
        {
          "indexed": false,
          "internalType": "uint256",
          "name": "soldAmount",
          "type": "uint256"
        },
        {
          "indexed": false,
          "internalType": "uint256",
          "name": "boughtAmount",
          "type": "uint256"
        },
        {
          "indexed": false,
          "internalType": "uint256",
          "name": "remainingBudget",
          "type": "uint256"
        },
        {
          "indexed": false,
          "internalType": "bool",
          "name": "scheduleStatus",
          "type": "bool"
        },
        {
          "indexed": false,
          "internalType": "uint256",
          "name": "gasUsed",
          "type": "uint256"
        },
        {
          "indexed": false,
          "internalType": "uint256",
          "name": "gasRemaining",
          "type": "uint256"
        },
        {
          "indexed": false,
          "internalType": "uint256",
          "name": "nextRun",
          "type": "uint256"
        },
        {
          "indexed": true,
          "internalType": "address",
          "name": "dcaOwner",
          "type": "address"
        }
      ],
      "name": "BoughtTokens",
      "type": "event"
    },
    {
      "anonymous": false,
      "inputs": [
        {
          "indexed": true,
          "internalType": "address",
          "name": "sender",
          "type": "address"
        },
        {
          "indexed": false,
          "internalType": "address",
          "name": "token",
          "type": "address"
        },
        {
          "indexed": false,
          "internalType": "uint256",
          "name": "amount",
          "type": "uint256"
        }
      ],
      "name": "FundsDeposited",
      "type": "event"
    },
    {
      "anonymous": false,
      "inputs": [
        {
          "indexed": true,
          "internalType": "address",
          "name": "receiver",
          "type": "address"
        },
        {
          "indexed": false,
          "internalType": "address",
          "name": "token",
          "type": "address"
        },
        {
          "indexed": false,
          "internalType": "uint256",
          "name": "amount",
          "type": "uint256"
        }
      ],
      "name": "FundsWithdrawn",
      "type": "event"
    },
    {
      "anonymous": false,
      "inputs": [
        {
          "indexed": true,
          "internalType": "uint256",
          "name": "dcaScheduleId",
          "type": "uint256"
        },
        {
          "indexed": false,
          "internalType": "address",
          "name": "buyToken",
          "type": "address"
        },
        {
          "indexed": false,
          "internalType": "address",
          "name": "sellToken",
          "type": "address"
        },
        {
          "indexed": true,
          "internalType": "address",
          "name": "dcaOwner",
          "type": "address"
        }
      ],
      "name": "NewUserSchedule",
      "type": "event"
    },
    {
      "anonymous": false,
      "inputs": [
        {
          "indexed": true,
          "internalType": "address",
          "name": "previousOwner",
          "type": "address"
        },
        {
          "indexed": true,
          "internalType": "address",
          "name": "newOwner",
          "type": "address"
        }
      ],
      "name": "OwnershipTransferred",
      "type": "event"
    },
    {
      "stateMutability": "payable",
      "type": "fallback"
    },
    {
      "inputs": [
        {
          "internalType": "uint256",
          "name": "_tradeAmount",
          "type": "uint256"
        },
        {
          "internalType": "uint256",
          "name": "_tradeFrequency",
          "type": "uint256"
        },
        {
          "internalType": "uint256",
          "name": "_startDate",
          "type": "uint256"
        },
        {
          "internalType": "uint256",
          "name": "_endDate",
          "type": "uint256"
        },
        {
          "internalType": "address",
          "name": "_sellToken",
          "type": "address"
        }
      ],
      "name": "calculateDeposit",
      "outputs": [
        {
          "internalType": "uint256",
          "name": "",
          "type": "uint256"
        }
      ],
      "stateMutability": "view",
      "type": "function"
    },
    {
      "inputs": [
        {
          "internalType": "uint256",
          "name": "_tradeFrequency",
          "type": "uint256"
        },
        {
          "internalType": "uint256",
          "name": "_startDate",
          "type": "uint256"
        },
        {
          "internalType": "uint256",
          "name": "_endDate",
          "type": "uint256"
        }
      ],
      "name": "calculateExecutions",
      "outputs": [
        {
          "internalType": "uint256",
          "name": "",
          "type": "uint256"
        }
      ],
      "stateMutability": "pure",
      "type": "function"
    },
    {
      "inputs": [
        {
          "internalType": "uint256",
          "name": "_tradeAmount",
          "type": "uint256"
        },
        {
          "internalType": "uint256",
          "name": "_tradeFrequency",
          "type": "uint256"
        },
        {
          "internalType": "uint256",
          "name": "_startDate",
          "type": "uint256"
        },
        {
          "internalType": "uint256",
          "name": "_endDate",
          "type": "uint256"
        }
      ],
      "name": "calculateGasDeposit",
      "outputs": [
        {
          "internalType": "uint256",
          "name": "",
          "type": "uint256"
        }
      ],
      "stateMutability": "view",
      "type": "function"
    },
    {
      "inputs": [
        {
          "internalType": "uint256",
          "name": "_tradeFrequency",
          "type": "uint256"
        },
        {
          "internalType": "uint256",
          "name": "_tradeAmount",
          "type": "uint256"
        },
        {
          "internalType": "address",
          "name": "_buyToken",
          "type": "address"
        },
        {
          "internalType": "address",
          "name": "_sellToken",
          "type": "address"
        },
        {
          "internalType": "uint256",
          "name": "_startDate",
          "type": "uint256"
        },
        {
          "internalType": "uint256",
          "name": "_endDate",
          "type": "uint256"
        },
        {
          "internalType": "uint256",
          "name": "_currGasEstimate",
          "type": "uint256"
        }
      ],
      "name": "createDcaSchedule",
      "outputs": [],
      "stateMutability": "nonpayable",
      "type": "function"
    },
    {
      "inputs": [
        {
          "internalType": "uint256",
          "name": "_dcaScheduleId",
          "type": "uint256"
        }
      ],
      "name": "deleteSchedule",
      "outputs": [],
      "stateMutability": "nonpayable",
      "type": "function"
    },
    {
      "inputs": [
        {
          "internalType": "address",
          "name": "_tokenAddress",
          "type": "address"
        },
        {
          "internalType": "uint256",
          "name": "_tokenAmount",
          "type": "uint256"
        }
      ],
      "name": "depositFunds",
      "outputs": [],
      "stateMutability": "payable",
      "type": "function"
    },
    {
      "inputs": [],
      "name": "depositGas",
      "outputs": [],
      "stateMutability": "payable",
      "type": "function"
    },
    {
      "inputs": [],
      "name": "getAllUsersGasBalances",
      "outputs": [
        {
          "internalType": "uint256",
          "name": "",
          "type": "uint256"
        }
      ],
      "stateMutability": "view",
      "type": "function"
    },
    {
      "inputs": [],
      "name": "getAllUsersSchedules",
      "outputs": [
        {
          "internalType": "address[]",
          "name": "",
          "type": "address[]"
        },
        {
          "internalType": "uint256[]",
          "name": "",
          "type": "uint256[]"
        }
      ],
      "stateMutability": "view",
      "type": "function"
    },
    {
      "inputs": [
        {
          "internalType": "uint256",
          "name": "currGasEstimate",
          "type": "uint256"
        }
      ],
      "name": "getFreeGasBalance",
      "outputs": [
        {
          "internalType": "int256",
          "name": "",
          "type": "int256"
        }
      ],
      "stateMutability": "view",
      "type": "function"
    },
    {
      "inputs": [
        {
          "internalType": "address",
          "name": "_tokenAddress",
          "type": "address"
        }
      ],
      "name": "getFreeTokenBalance",
      "outputs": [
        {
          "internalType": "int256",
          "name": "",
          "type": "int256"
        }
      ],
      "stateMutability": "view",
      "type": "function"
    },
    {
      "inputs": [],
      "name": "getUserAllTokenBalances",
      "outputs": [
        {
          "internalType": "address[]",
          "name": "",
          "type": "address[]"
        },
        {
          "internalType": "uint256[]",
          "name": "",
          "type": "uint256[]"
        },
        {
          "internalType": "int256[]",
          "name": "",
          "type": "int256[]"
        }
      ],
      "stateMutability": "view",
      "type": "function"
    },
    {
      "inputs": [],
      "name": "getUserSchedules",
      "outputs": [
        {
          "components": [
            {
              "internalType": "uint256",
              "name": "tradeFrequency",
              "type": "uint256"
            },
            {
              "internalType": "uint256",
              "name": "tradeAmount",
              "type": "uint256"
            },
            {
              "internalType": "uint256",
              "name": "remainingBudget",
              "type": "uint256"
            },
            {
              "internalType": "address",
              "name": "buyToken",
              "type": "address"
            },
            {
              "internalType": "address",
              "name": "sellToken",
              "type": "address"
            },
            {
              "internalType": "bool",
              "name": "isActive",
              "type": "bool"
            },
            {
              "internalType": "uint256[4]",
              "name": "scheduleDates",
              "type": "uint256[4]"
            },
            {
              "internalType": "uint256",
              "name": "soldAmount",
              "type": "uint256"
            },
            {
              "internalType": "uint256",
              "name": "boughtAmount",
              "type": "uint256"
            },
            {
              "internalType": "uint256",
              "name": "totalGas",
              "type": "uint256"
            }
          ],
          "internalType": "struct UserScheduleData.DcaSchedule[]",
          "name": "",
          "type": "tuple[]"
        }
      ],
      "stateMutability": "view",
      "type": "function"
    },
    {
      "inputs": [],
      "name": "owner",
      "outputs": [
        {
          "internalType": "address",
          "name": "",
          "type": "address"
        }
      ],
      "stateMutability": "view",
      "type": "function"
    },
    {
      "inputs": [
        {
          "internalType": "uint256",
          "name": "_dcaScheduleId",
          "type": "uint256"
        }
      ],
      "name": "pauseSchedule",
      "outputs": [],
      "stateMutability": "nonpayable",
      "type": "function"
    },
    {
      "inputs": [],
      "name": "redistrubuteGas",
      "outputs": [],
      "stateMutability": "nonpayable",
      "type": "function"
    },
    {
      "inputs": [],
      "name": "renounceOwnership",
      "outputs": [],
      "stateMutability": "nonpayable",
      "type": "function"
    },
    {
      "inputs": [
        {
          "internalType": "uint256",
          "name": "_dcaScheduleId",
          "type": "uint256"
        },
        {
          "internalType": "uint256",
          "name": "currGasEstimate",
          "type": "uint256"
        }
      ],
      "name": "resumeSchedule",
      "outputs": [],
      "stateMutability": "nonpayable",
      "type": "function"
    },
    {
      "inputs": [
        {
          "internalType": "address",
          "name": "dcaOwner",
          "type": "address"
        },
        {
          "internalType": "uint256",
          "name": "scheduleId",
          "type": "uint256"
        },
        {
          "internalType": "uint256",
          "name": "currentGasPrice",
          "type": "uint256"
        },
        {
          "internalType": "uint256",
          "name": "currentDateTime",
          "type": "uint256"
        },
        {
          "internalType": "bytes",
          "name": "swapCallData",
          "type": "bytes"
        }
      ],
      "name": "runUserDCA",
      "outputs": [],
      "stateMutability": "payable",
      "type": "function"
    },
    {
      "inputs": [
        {
          "internalType": "address",
          "name": "newOwner",
          "type": "address"
        }
      ],
      "name": "transferOwnership",
      "outputs": [],
      "stateMutability": "nonpayable",
      "type": "function"
    },
    {
      "inputs": [
        {
          "internalType": "address",
          "name": "",
          "type": "address"
        }
      ],
      "name": "userGasBalances",
      "outputs": [
        {
          "internalType": "uint256",
          "name": "",
          "type": "uint256"
        }
      ],
      "stateMutability": "view",
      "type": "function"
    },
    {
      "inputs": [
        {
          "internalType": "address",
          "name": "",
          "type": "address"
        },
        {
          "internalType": "uint256",
          "name": "",
          "type": "uint256"
        }
      ],
      "name": "userToDcaSchedules",
      "outputs": [
        {
          "internalType": "uint256",
          "name": "tradeFrequency",
          "type": "uint256"
        },
        {
          "internalType": "uint256",
          "name": "tradeAmount",
          "type": "uint256"
        },
        {
          "internalType": "uint256",
          "name": "remainingBudget",
          "type": "uint256"
        },
        {
          "internalType": "address",
          "name": "buyToken",
          "type": "address"
        },
        {
          "internalType": "address",
          "name": "sellToken",
          "type": "address"
        },
        {
          "internalType": "bool",
          "name": "isActive",
          "type": "bool"
        },
        {
          "internalType": "uint256",
          "name": "soldAmount",
          "type": "uint256"
        },
        {
          "internalType": "uint256",
          "name": "boughtAmount",
          "type": "uint256"
        },
        {
          "internalType": "uint256",
          "name": "totalGas",
          "type": "uint256"
        }
      ],
      "stateMutability": "view",
      "type": "function"
    },
    {
      "inputs": [
        {
          "internalType": "address",
          "name": "",
          "type": "address"
        },
        {
          "internalType": "address",
          "name": "",
          "type": "address"
        }
      ],
      "name": "userTokenBalances",
      "outputs": [
        {
          "internalType": "uint256",
          "name": "",
          "type": "uint256"
        }
      ],
      "stateMutability": "view",
      "type": "function"
    },
    {
      "inputs": [
        {
          "internalType": "address",
          "name": "_sellToken",
          "type": "address"
        },
        {
          "internalType": "uint256",
          "name": "_tradeAmount",
          "type": "uint256"
        },
        {
          "internalType": "uint256",
          "name": "_tradeFrequency",
          "type": "uint256"
        },
        {
          "internalType": "uint256",
          "name": "_startDate",
          "type": "uint256"
        },
        {
          "internalType": "uint256",
          "name": "_endDate",
          "type": "uint256"
        },
        {
          "internalType": "uint256",
          "name": "_currGasEstimate",
          "type": "uint256"
        }
      ],
      "name": "validateDcaSchedule",
      "outputs": [],
      "stateMutability": "view",
      "type": "function"
    },
    {
      "inputs": [
        {
          "internalType": "uint256",
          "name": "withdrawAmount",
          "type": "uint256"
        },
        {
          "internalType": "address payable",
          "name": "receiver",
          "type": "address"
        }
      ],
      "name": "withdrawContractGas",
      "outputs": [],
      "stateMutability": "nonpayable",
      "type": "function"
    },
    {
      "inputs": [
        {
          "internalType": "address",
          "name": "_tokenAddress",
          "type": "address"
        },
        {
          "internalType": "uint256",
          "name": "_tokenAmount",
          "type": "uint256"
        }
      ],
      "name": "withdrawFunds",
      "outputs": [],
      "stateMutability": "nonpayable",
      "type": "function"
    },
    {
      "inputs": [
        {
          "internalType": "uint256",
          "name": "_tokenAmount",
          "type": "uint256"
        }
      ],
      "name": "withdrawGas",
      "outputs": [],
      "stateMutability": "nonpayable",
      "type": "function"
    },
    {
      "stateMutability": "payable",
      "type": "receive"
    }
  ],
  "transactionHash": "0xa8831bbb87cbf20a2665501516807e60c3141abfe5221154643a92f3d29a8f3a",
  "args": [],
  "numDeployments": 1,
  "solcInputHash": "ad0c8a2e85ef88f4f06e821053533848",
  "bytecode": "0x6080604052600019600a553480156200001757600080fd5b5062000023336200002e565b60016009556200007e565b600080546001600160a01b038381166001600160a01b0319831681178455604051919092169283917f8be0079c531659141344cd1fd0a4f28419497f9722a3daafe3b4186f6b6457e09190a35050565b614153806200008e6000396000f3fe6080604052600436106101b05760003560e01c80639d21bfeb116100ec578063c10753291161008a578063db289ce811610064578063db289ce8146104e1578063dcaf298814610501578063e93f425b14610524578063f2fde38b14610544576101bf565b8063c10753291461048c578063d2bfcccd146104ac578063d2c9f4a0146104c1576101bf565b8063add64c97116100c6578063add64c97146103d9578063ae9bb692146101bf578063aef8d6a3146103fd578063bd0d39491461041d576101bf565b80639d21bfeb146103915780639e5b2b12146103b1578063a185341e146103c4576101bf565b8063637878b8116101595780638da5cb5b116101335780638da5cb5b14610316578063910181071461033e578063916575441461035e578063921b004b1461037e576101bf565b8063637878b8146102bf578063715018a6146102df578063886984f1146102f4576101bf565b80634269723f1161018a5780634269723f1461023a57806345f2d105146102675780635c576c311461029f576101bf565b80630847e483146101c75780632554cdba146101e757806325b2173214610207576101bf565b366101bf576101bd610564565b005b6101bd610564565b3480156101d357600080fd5b506101bd6101e23660046139b0565b6105ef565b3480156101f357600080fd5b506101bd6102023660046139de565b6108aa565b34801561021357600080fd5b50610227610222366004613a43565b610af0565b6040519081526020015b60405180910390f35b34801561024657600080fd5b50610227610255366004613a90565b60036020526000908152604090205481565b34801561027357600080fd5b50610227610282366004613aad565b600160209081526000928352604080842090915290825290205481565b3480156102ab57600080fd5b506102276102ba366004613ae6565b610bc1565b3480156102cb57600080fd5b506101bd6102da366004613b18565b610c8c565b3480156102eb57600080fd5b506101bd610daa565b34801561030057600080fd5b50610309610dbe565b6040516102319190613b60565b34801561032257600080fd5b506000546040516001600160a01b039091168152602001610231565b34801561034a57600080fd5b50610227610359366004613c22565b610ed0565b34801561036a57600080fd5b506101bd6103793660046139b0565b610f99565b6101bd61038c366004613c4e565b61118f565b34801561039d57600080fd5b506102276103ac366004613a90565b611385565b6101bd6103bf366004613c90565b61148b565b3480156103d057600080fd5b50610227611cb8565b3480156103e557600080fd5b506103ee611d21565b60405161023193929190613de5565b34801561040957600080fd5b506102276104183660046139b0565b611f10565b34801561042957600080fd5b5061043d610438366004613c4e565b612031565b60408051998a5260208a0198909852968801959095526001600160a01b039384166060880152929091166080860152151560a085015260c084015260e083015261010082015261012001610231565b34801561049857600080fd5b506101bd6104a7366004613c4e565b6120ab565b3480156104b857600080fd5b506101bd6122f0565b3480156104cd57600080fd5b506101bd6104dc3660046139b0565b6123da565b3480156104ed57600080fd5b506101bd6104fc366004613e4e565b612426565b34801561050d57600080fd5b506105166124ed565b604051610231929190613e9a565b34801561053057600080fd5b506101bd61053f366004613ec8565b612650565b34801561055057600080fd5b506101bd61055f366004613a90565b612874565b336000908152600360205260409020543490610581908290613f00565b3360008181526003602052604090209190915561059d90612901565b6040805173eeeeeeeeeeeeeeeeeeeeeeeeeeeeeeeeeeeeeeee81526020810183905233917ff0d0e99cae184d0187b093b48894117462462379674a6e11d89c3fbb618e96b0910160405180910390a250565b33600090815260066020526040902080548290811061061057610610613f18565b600091825260208220600c90910201818155600181018290556002810182905560038101805473ffffffffffffffffffffffffffffffffffffffff1916905560048101805474ffffffffffffffffffffffffffffffffffffffffff19169055600581018290556006810182905560078101829055600881018290559050600060098201819055600a8201819055600b90910181905533815260066020526040902080546106bf90600190613f2e565b815481106106cf576106cf613f18565b90600052602060002090600c020160066000336001600160a01b03166001600160a01b03168152602001908152602001600020828154811061071357610713613f18565b600091825260209091208254600c909202019081556001808301549082015560028083015490820155600380830154908201805473ffffffffffffffffffffffffffffffffffffffff199081166001600160a01b0393841617909155600480850180548286018054948516919095169081178555905460ff600160a01b918290041615150274ffffffffffffffffffffffffffffffffffffffffff1990931617919091179091556107cd9060058084019190850190613932565b5060098281015490820155600a8083015490820155600b9182015491015533600090815260066020526040902080548061080957610809613f45565b600082815260208120600c6000199390930192830201818155600181018290556002810182905560038101805473ffffffffffffffffffffffffffffffffffffffff1916905560048101805474ffffffffffffffffffffffffffffffffffffffffff191690556005810182905560068101829055600781018290556008810182905560098101829055600a8101829055600b015590556108a7612910565b50565b60006108b7888585610ed0565b905060006108c58289613f5b565b90506108d586898b888888612426565b6108dd61292f565b6108e7338861293a565b60066000336001600160a01b03166001600160a01b031681526020019081526020016000206040518061014001604052808b81526020018a8152602001838152602001896001600160a01b03168152602001886001600160a01b031681526020016001151581526020016040518060800160405280898152602001600081526020018981526020018881525081526020016000815260200160008152602001600081525090806001815401808255809150506001900390600052602060002090600c020160009091909190915060008201518160000155602082015181600101556040820151816002015560608201518160030160006101000a8154816001600160a01b0302191690836001600160a01b0316021790555060808201518160040160006101000a8154816001600160a01b0302191690836001600160a01b0316021790555060a08201518160040160146101000a81548160ff02191690831515021790555060c082015181600501906004610a6392919061396d565b5060e08201516009820155610100820151600a82015561012090910151600b9091015533600081815260066020526040902054610aa290600190613f2e565b604080516001600160a01b03808c1682528a1660208201527f02c7cf82c34b568fd76896e8da79a4de6ce78cd85af0a1c5321205a2781ba4c1910160405180910390a3505050505050505050565b600080610afe868686610ed0565b905060008111610b405760405162461bcd60e51b8152602060048201526008602482015267496e76616c69642160c01b60448201526064015b60405180910390fd5b60008711610b795760405162461bcd60e51b81526020600482015260066024820152654e6f7420302160d01b6044820152606401610b37565b6000610b858289613f5b565b90506000610b9285611385565b9050600080610ba18385613f7a565b1315610bb457610bb18284613f7a565b90505b9998505050505050505050565b600080610bcf858585610ed0565b905060008111610c0c5760405162461bcd60e51b8152602060048201526008602482015267496e76616c69642160c01b6044820152606401610b37565b60008611610c455760405162461bcd60e51b81526020600482015260066024820152654e6f7420302160d01b6044820152606401610b37565b6000610c518288613f5b565b90506000610c5e88611f10565b9050600080610c6d8385613f7a565b1315610c8057610c7d8284613f7a565b90505b98975050505050505050565b610c94612987565b6000610c9e611cb8565b9050476000610cad8383613f2e565b905080851115610cff5760405162461bcd60e51b815260206004820152601e60248201527f43616e6e6f74207769746864726177206d6f7265207468616e206d61782100006044820152606401610b37565b6000846001600160a01b03168660405160006040518083038185875af1925050503d8060008114610d4c576040519150601f19603f3d011682016040523d82523d6000602084013e610d51565b606091505b5050905080610da25760405162461bcd60e51b815260206004820152601b60248201527f436f6e7472616374207769746864726177616c206661696c65642100000000006044820152606401610b37565b505050505050565b610db2612987565b610dbc60006129e1565b565b336000908152600660209081526040808320805482518185028101850190935280835260609492939192909184015b82821015610ec75760008481526020908190206040805161014081018252600c86029092018054835260018101549383019390935260028301548282015260038301546001600160a01b039081166060840152600480850154918216608080860191909152600160a01b90920460ff16151560a085015282519182019283905292939260c085019260058501919082845b815481526020019060010190808311610e7e575050505050815260200160098201548152602001600a8201548152602001600b8201548152505081526020019060010190610ded565b50505050905090565b6000828211610f215760405162461bcd60e51b815260206004820152600e60248201527f496e76616c6964206461746573210000000000000000000000000000000000006044820152606401610b37565b83610f2c8484613f2e565b1015610f7a5760405162461bcd60e51b815260206004820152600d60248201527f496e76616c6964206578656321000000000000000000000000000000000000006044820152606401610b37565b83610f858484613f2e565b610f8f9190613fd2565b90505b9392505050565b60026009541415610fec5760405162461bcd60e51b815260206004820152601f60248201527f5265656e7472616e637947756172643a207265656e7472616e742063616c6c006044820152606401610b37565b6002600955336000908152600360205260409020548111156110765760405162461bcd60e51b815260206004820152602860248201527f43616e6e6f74207769746864726177206d6f726520676173207468616e20646560448201527f706f7369746564210000000000000000000000000000000000000000000000006064820152608401610b37565b33600090815260036020526040902054611091908290613f2e565b3360008181526003602052604080822093909355915183908381818185875af1925050503d80600081146110e1576040519150601f19603f3d011682016040523d82523d6000602084013e6110e6565b606091505b50509050806111375760405162461bcd60e51b815260206004820152601e60248201527f5f7472616e736665723a20455448207472616e73666572206661696c656400006044820152606401610b37565b6040805173eeeeeeeeeeeeeeeeeeeeeeeeeeeeeeeeeeeeeeee81526020810184905233917fa92ff919b850e4909ab2261d907ef955f11bc1716733a6cbece38d163a69af8a910160405180910390a250506001600955565b60006001600160a01b03831673eeeeeeeeeeeeeeeeeeeeeeeeeeeeeeeeeeeeeeee14156111bd5750346112dc565b6040516370a0823160e01b815230600482015283906000906001600160a01b038316906370a082319060240160206040518083038186803b15801561120157600080fd5b505afa158015611215573d6000803e3d6000fd5b505050506040513d601f19601f820116820180604052508101906112399190613ff4565b90506112506001600160a01b038316333087612a3e565b6040516370a0823160e01b81523060048201526000906001600160a01b038416906370a082319060240160206040518083038186803b15801561129257600080fd5b505afa1580156112a6573d6000803e3d6000fd5b505050506040513d601f19601f820116820180604052508101906112ca9190613ff4565b90506112d68282613f2e565b93505050505b3360009081526001602090815260408083206001600160a01b038716845290915290205461130b908290613f00565b3360008181526001602090815260408083206001600160a01b038916845290915290209190915561133c908461293a565b604080516001600160a01b03851681526020810183905233917ff0d0e99cae184d0187b093b48894117462462379674a6e11d89c3fbb618e96b0910160405180910390a2505050565b600080611390610dbe565b3360009081526001602090815260408083206001600160a01b03881684529091528120548251929350916113c5575080611483565b6000805b845181101561147457866001600160a01b03168582815181106113ee576113ee613f18565b6020026020010151608001516001600160a01b0316148015611431575084818151811061141d5761141d613f18565b602002602001015160a00151151560011515145b156114625784818151811061144857611448613f18565b6020026020010151604001518261145f919061400d565b91505b8061146c81614065565b9150506113c9565b5061147f8184613f7a565b9150505b949350505050565b611493612987565b60005a6001600160a01b03871660009081526003602052604090205490915084106115005760405162461bcd60e51b815260206004820152600860248201527f4c6f7720476173210000000000000000000000000000000000000000000000006044820152606401610b37565b6001600160a01b038616600090815260066020526040902080548690811061152a5761152a613f18565b90600052602060002090600c020160050160026004811061154d5761154d613f18565b015483101561159e5760405162461bcd60e51b815260206004820152600a60248201527f4e6f7420526561647921000000000000000000000000000000000000000000006044820152606401610b37565b6001600160a01b03861660009081526006602052604090208054869081106115c8576115c8613f18565b90600052602060002090600c020160040160149054906101000a900460ff161515600115151461163a5760405162461bcd60e51b815260206004820152600760248201527f50617573656421000000000000000000000000000000000000000000000000006044820152606401610b37565b6001600160a01b038616600090815260066020526040812080548790811061166457611664613f18565b600091825260208083206004600c9093020191909101546001600160a01b038a81168452600690925260408320805492909116935090889081106116aa576116aa613f18565b600091825260208083206001600c909302018201546001600160a01b03808d16855292825260408085209387168552929091529120549091508111156117325760405162461bcd60e51b815260206004820152600c60248201527f4c6f772042616c616e63652100000000000000000000000000000000000000006044820152606401610b37565b6001600160a01b038816600090815260066020526040812080548990811061175c5761175c613f18565b90600052602060002090600c020160020154116117bb5760405162461bcd60e51b815260206004820152601260248201527f5363686564756c6520636f6d706c6574652100000000000000000000000000006044820152606401610b37565b6001600160a01b03881660009081526006602052604081208054849291908a9081106117e9576117e9613f18565b600091825260209091206003600c9092020101546001600160a01b0316905061182e826001600160a01b031673eeeeeeeeeeeeeeeeeeeeeeeeeeeeeeeeeeeeeeee1490565b611997576040517fdd62ed3e000000000000000000000000000000000000000000000000000000008152306004820152731111111254fb6c44bac0bed2854e76f90643097d602482015283906001600160a01b0384169063dd62ed3e9060440160206040518083038186803b1580156118a657600080fd5b505afa1580156118ba573d6000803e3d6000fd5b505050506040513d601f19601f820116820180604052508101906118de9190613ff4565b101561199757600a546040517f095ea7b3000000000000000000000000000000000000000000000000000000008152731111111254fb6c44bac0bed2854e76f90643097d600482015260248101919091526001600160a01b0383169063095ea7b390604401602060405180830381600087803b15801561195d57600080fd5b505af1158015611971573d6000803e3d6000fd5b505050506040513d601f19601f820116820180604052508101906119959190614080565b505b600073eeeeeeeeeeeeeeeeeeeeeeeeeeeeeeeeeeeeeeee6001600160a01b03831614611a3b576040516370a0823160e01b81523060048201526001600160a01b038316906370a082319060240160206040518083038186803b1580156119fc57600080fd5b505afa158015611a10573d6000803e3d6000fd5b505050506040513d601f19601f82011682018060405250810190611a349190613ff4565b9050611a3e565b50475b600073eeeeeeeeeeeeeeeeeeeeeeeeeeeeeeeeeeeeeeee6001600160a01b03851614611ae2576040516370a0823160e01b81523060048201526001600160a01b038516906370a082319060240160206040518083038186803b158015611aa357600080fd5b505afa158015611ab7573d6000803e3d6000fd5b505050506040513d601f19601f82011682018060405250810190611adb9190613ff4565b9050611ae5565b50475b600080895160208b0134731111111254fb6c44bac0bed2854e76f90643097d5af13d6000803e808015611b1757611b1c565b3d6000fd5b505073eeeeeeeeeeeeeeeeeeeeeeeeeeeeeeeeeeeeeeee6001600160a01b03841614611bcc576040516370a0823160e01b815230600482015282906001600160a01b038516906370a082319060240160206040518083038186803b158015611b8357600080fd5b505afa158015611b97573d6000803e3d6000fd5b505050506040513d601f19601f82011682018060405250810190611bbb9190613ff4565b611bc59190613f2e565b9150611bd9565b611bd68247613f2e565b91505b73eeeeeeeeeeeeeeeeeeeeeeeeeeeeeeeeeeeeeeee6001600160a01b03851614611c85576040516370a0823160e01b81523060048201526001600160a01b038516906370a082319060240160206040518083038186803b158015611c3c57600080fd5b505afa158015611c50573d6000803e3d6000fd5b505050506040513d601f19601f82011682018060405250810190611c749190613ff4565b611c7e9082613f2e565b9050611c92565b611c8f4782613f2e565b90505b611caa8c8c83855a611ca4908d613f2e565b8e612af5565b505050505050505050505050565b600080611cc560046134cd565b90506000805b82811015611d1a5760036000611ce26004846134dd565b6001600160a01b03168152602081019190915260400160002054611d069083613f00565b915080611d1281614065565b915050611ccb565b5092915050565b60608060606000611d306134e9565b905060008167ffffffffffffffff811115611d4d57611d4d613c7a565b604051908082528060200260200182016040528015611d76578160200160208202803683370190505b50905060008267ffffffffffffffff811115611d9457611d94613c7a565b604051908082528060200260200182016040528015611dbd578160200160208202803683370190505b50905060008367ffffffffffffffff811115611ddb57611ddb613c7a565b604051908082528060200260200182016040528015611e04578160200160208202803683370190505b50905060005b84811015611f0257611e1b81613506565b848281518110611e2d57611e2d613f18565b6001600160a01b039092166020928302919091018201523360009081526001909152604081208551909190869084908110611e6a57611e6a613f18565b60200260200101516001600160a01b03166001600160a01b0316815260200190815260200160002054838281518110611ea557611ea5613f18565b602002602001018181525050611ed3848281518110611ec657611ec6613f18565b6020026020010151611385565b828281518110611ee557611ee5613f18565b602090810291909101015280611efa81614065565b915050611e0a565b509196909550909350915050565b600080611f1b610dbe565b33600090815260036020526040812054825192935091611f3c575080611483565b6000805b845181101561147457848181518110611f5b57611f5b613f18565b602002602001015160a00151151560011515141561201f576000612005868381518110611f8a57611f8a613f18565b602002602001015160000151878481518110611fa857611fa8613f18565b602002602001015160c00151600260048110611fc657611fc6613f18565b6020020151888581518110611fdd57611fdd613f18565b602002602001015160c00151600360048110611ffb57611ffb613f18565b6020020151610ed0565b90506120118882613f5b565b61201b908461400d565b9250505b8061202981614065565b915050611f40565b6006602052816000526040600020818154811061204d57600080fd5b60009182526020909120600c90910201805460018201546002830154600384015460048501546009860154600a870154600b9097015495985093965091946001600160a01b039182169491831693600160a01b90930460ff16929189565b600260095414156120fe5760405162461bcd60e51b815260206004820152601f60248201527f5265656e7472616e637947756172643a207265656e7472616e742063616c6c006044820152606401610b37565b60026009553360009081526001602090815260408083206001600160a01b03861684529091529020548181101561219c5760405162461bcd60e51b8152602060048201526024808201527f43616e6e6f74207769746864726177206d6f7265207468616e206465706f736960448201527f74656421000000000000000000000000000000000000000000000000000000006064820152608401610b37565b3360009081526001602090815260408083206001600160a01b0387168452909152812080548492906121cf908490613f2e565b90915550506001600160a01b03831673eeeeeeeeeeeeeeeeeeeeeeeeeeeeeeeeeeeeeeee141561229757604051600090339084908381818185875af1925050503d806000811461223b576040519150601f19603f3d011682016040523d82523d6000602084013e612240565b606091505b50509050806122915760405162461bcd60e51b815260206004820152601e60248201527f5f7472616e736665723a20455448207472616e73666572206661696c656400006044820152606401610b37565b506122a2565b6122a283338461351f565b604080516001600160a01b03851681526020810184905233917fa92ff919b850e4909ab2261d907ef955f11bc1716733a6cbece38d163a69af8a910160405180910390a25050600160095550565b6122f8612987565b6000612302613568565b9050600061230e611cb8565b905047600061231d8383613f2e565b9050600061232b8583613fd2565b90506001851161237d5760405162461bcd60e51b815260206004820152601160248201527f4e6f7420656e6f756768207573657273210000000000000000000000000000006044820152606401610b37565b60005b85811015610da257600061239382613574565b6001600160a01b0381166000908152600360205260408120805492935085929091906123c0908490613f00565b909155508291506123d2905081614065565b915050612380565b3360009081526006602052604081208054839081106123fb576123fb613f18565b90600052602060002090600c020160040160146101000a81548160ff02191690831515021790555050565b6000612435868686868b610af0565b905080156124855760405162461bcd60e51b815260206004820152600860248201527f4c6f772062616c210000000000000000000000000000000000000000000000006044820152606401610b37565b600061249383878787610bc1565b905080156124e35760405162461bcd60e51b815260206004820152600860248201527f4c6f7720676173210000000000000000000000000000000000000000000000006044820152606401610b37565b5050505050505050565b60608060006124fc60076134cd565b905060008167ffffffffffffffff81111561251957612519613c7a565b604051908082528060200260200182016040528015612542578160200160208202803683370190505b50905060008267ffffffffffffffff81111561256057612560613c7a565b604051908082528060200260200182016040528015612589578160200160208202803683370190505b50905060005b83811015612645576125a26007826134dd565b8382815181106125b4576125b4613f18565b60200260200101906001600160a01b031690816001600160a01b031681525050600660008483815181106125ea576125ea613f18565b60200260200101516001600160a01b03166001600160a01b031681526020019081526020016000208054905082828151811061262857612628613f18565b60209081029190910101528061263d81614065565b91505061258f565b509094909350915050565b33600090815260066020526040812080548490811061267157612671613f18565b90600052602060002090600c020160020154116126d05760405162461bcd60e51b815260206004820152601260248201527f5363686564756c6520636f6d706c6574652100000000000000000000000000006044820152606401610b37565b33600090815260066020526040902080546128239190849081106126f6576126f6613f18565b600091825260208083206004600c9093020191909101543383526006909152604090912080546001600160a01b03909216918590811061273857612738613f18565b90600052602060002090600c02016001015460066000336001600160a01b03166001600160a01b03168152602001908152602001600020858154811061278057612780613f18565b60009182526020808320600c90920290910154338352600690915260409091208054879081106127b2576127b2613f18565b90600052602060002090600c02016005016002600481106127d5576127d5613f18565b01543360009081526006602052604090208054889081106127f8576127f8613f18565b90600052602060002090600c020160050160036004811061281b5761281b613f18565b015486612426565b3360009081526006602052604090208054600191908490811061284857612848613f18565b90600052602060002090600c020160040160146101000a81548160ff0219169083151502179055505050565b61287c612987565b6001600160a01b0381166128f85760405162461bcd60e51b815260206004820152602660248201527f4f776e61626c653a206e6577206f776e657220697320746865207a65726f206160448201527f64647265737300000000000000000000000000000000000000000000000000006064820152608401610b37565b6108a7816129e1565b61290c600482613581565b5050565b33600090815260066020526040902054610dbc576108a7600733613596565b6108a7600733613581565b6001600160a01b038216600090815260026020526040902061295c90826135ab565b61290c576001600160a01b03821660009081526002602052604090206129829082613581565b505050565b6000546001600160a01b03163314610dbc5760405162461bcd60e51b815260206004820181905260248201527f4f776e61626c653a2063616c6c6572206973206e6f7420746865206f776e65726044820152606401610b37565b600080546001600160a01b0383811673ffffffffffffffffffffffffffffffffffffffff19831681178455604051919092169283917f8be0079c531659141344cd1fd0a4f28419497f9722a3daafe3b4186f6b6457e09190a35050565b6040516001600160a01b0380851660248301528316604482015260648101829052612aef9085907f23b872dd00000000000000000000000000000000000000000000000000000000906084015b60408051601f198184030181529190526020810180517bffffffffffffffffffffffffffffffffffffffffffffffffffffffff167fffffffff00000000000000000000000000000000000000000000000000000000909316929092179091526135cd565b50505050565b60026009541415612b485760405162461bcd60e51b815260206004820152601f60248201527f5265656e7472616e637947756172643a207265656e7472616e742063616c6c006044820152606401610b37565b6002600955612b55612987565b60005a6001600160a01b03881660009081526006602052604090208054919250869188908110612b8757612b87613f18565b90600052602060002090600c020160020154612ba39190613f2e565b6001600160a01b0388166000908152600660205260409020805488908110612bcd57612bcd613f18565b600091825260208083206002600c9093020191909101929092556001600160a01b038916815260018252604080822060069093528120805488939291908a908110612c1a57612c1a613f18565b600091825260208083206004600c9093020191909101546001600160a01b03168352820192909252604001902054612c529190613f2e565b6001600160a01b03881660009081526001602090815260408083206006909252822080549192918a908110612c8957612c89613f18565b600091825260208083206004600c9093020191909101546001600160a01b039081168452838201949094526040928301822094909455918a168252600690925220805487908110612cdc57612cdc613f18565b90600052602060002090600c0201600501600260048110612cff57612cff613f18565b01546001600160a01b0388166000908152600660205260409020805488908110612d2b57612d2b613f18565b90600052602060002090600c0201600501600160048110612d4e57612d4e613f18565b01556001600160a01b0387166000908152600660205260409020805487908110612d7a57612d7a613f18565b90600052602060002090600c02016002015460001480612dfc57506001600160a01b038716600090815260016020908152604080832060069092528220805491929189908110612dcc57612dcc613f18565b600091825260208083206004600c9093020191909101546001600160a01b03168352820192909252604001902054155b15612e58576001600160a01b0387166000908152600660205260408120805488908110612e2b57612e2b613f18565b90600052602060002090600c020160040160146101000a81548160ff021916908315150217905550613079565b6001600160a01b03871660009081526006602052604081208054612f3b919089908110612e8757612e87613f18565b60009182526020808320600c909202909101546001600160a01b038c1683526006909152604090912080548a908110612ec257612ec2613f18565b90600052602060002090600c0201600501600260048110612ee557612ee5613f18565b01546001600160a01b038b16600090815260066020526040902080548b908110612f1157612f11613f18565b90600052602060002090600c0201600501600360048110612f3457612f34613f18565b0154610ed0565b6001600160a01b038916600090815260066020526040902080549192509088908110612f6957612f69613f18565b90600052602060002090600c02016000015483612f869190613f00565b6001600160a01b0389166000908152600660205260409020805489908110612fb057612fb0613f18565b90600052602060002090600c0201600501600260048110612fd357612fd3613f18565b01556001600160a01b038816600090815260066020526040902080548291908990811061300257613002613f18565b90600052602060002090600c02016000015461301e9190613f5b565b6130289084613f00565b6001600160a01b038916600090815260066020526040902080548990811061305257613052613f18565b90600052602060002090600c020160050160036004811061307557613075613f18565b0155505b6001600160a01b0387166000908152600160209081526040808320600690925282208054879391908a9081106130b1576130b1613f18565b600091825260208083206003600c9093020191909101546001600160a01b031683528201929092526040019020546130e99190613f00565b6001600160a01b03881660009081526001602090815260408083206006909252822080549192918a90811061312057613120613f18565b600091825260208083206003600c9093020191909101546001600160a01b039081168452838201949094526040928301822094909455918a16825260069092522080548391908890811061317657613176613f18565b90600052602060002090600c020160050160016004811061319957613199613f18565b01556001600160a01b03871660009081526006602052604090208054869190889081106131c8576131c8613f18565b90600052602060002090600c020160090160008282546131e89190613f00565b90915550506001600160a01b038716600090815260066020526040902080548591908890811061321a5761321a613f18565b90600052602060002090600c0201600a01600082825461323a9190613f00565b90915550600090503a5a61324e9084613f2e565b6132589086613f00565b6132629190613f5b565b6001600160a01b03891660009081526003602052604081208054929350839290919061328f908490613f2e565b90915550506001600160a01b03881660009081526006602052604090208054829190899081106132c1576132c1613f18565b90600052602060002090600c0201600b0160008282546132e19190613f00565b90915550506001600160a01b038816600090815260066020526040812080548990811061331057613310613f18565b60009182526020918290206040805161014081018252600c939093029091018054835260018101549383019390935260028301548282015260038301546001600160a01b039081166060840152600480850154918216608080860191909152600160a01b90920460ff16151560a085015282519182019283905292939260c085019260058501919082845b81548152602001906001019080831161339b575050505050815260200160098201548152602001600a8201548152602001600b8201548152505090506000600360008b6001600160a01b03166001600160a01b03168152602001908152602001600020549050896001600160a01b0316897f7330fde8068b0dd384e32e6f7deb7ed2599b5cbc5d856011d3f958d528ef5540846080015185606001518c8c88604001518960a001518e8a8c60c0015160026004811061345c5761345c613f18565b60209081029190910151604080516001600160a01b039b8c1681529a909916918a01919091529688019590955260608701939093526080860191909152151560a085015260c084015260e08301526101008201526101200160405180910390a3505060016009555050505050505050565b60006134d7825490565b92915050565b6000610f9283836136b2565b336000908152600260205260408120613501906134cd565b905090565b3360009081526002602052604081206134d790836134dd565b6040516001600160a01b0383166024820152604481018290526129829084907fa9059cbb0000000000000000000000000000000000000000000000000000000090606401612a8b565b600061350160046134cd565b60006134d76004836134dd565b6000610f92836001600160a01b0384166136dc565b6000610f92836001600160a01b03841661372b565b6001600160a01b03811660009081526001830160205260408120541515610f92565b6000613622826040518060400160405280602081526020017f5361666545524332303a206c6f772d6c6576656c2063616c6c206661696c6564815250856001600160a01b031661381e9092919063ffffffff16565b80519091501561298257808060200190518101906136409190614080565b6129825760405162461bcd60e51b815260206004820152602a60248201527f5361666545524332303a204552433230206f7065726174696f6e20646964206e60448201527f6f742073756363656564000000000000000000000000000000000000000000006064820152608401610b37565b60008260000182815481106136c9576136c9613f18565b9060005260206000200154905092915050565b6000818152600183016020526040812054613723575081546001818101845560008481526020808220909301849055845484825282860190935260409020919091556134d7565b5060006134d7565b6000818152600183016020526040812054801561381457600061374f600183613f2e565b855490915060009061376390600190613f2e565b90508181146137c857600086600001828154811061378357613783613f18565b90600052602060002001549050808760000184815481106137a6576137a6613f18565b6000918252602080832090910192909255918252600188019052604090208390555b85548690806137d9576137d9613f45565b6001900381819060005260206000200160009055905585600101600086815260200190815260200160002060009055600193505050506134d7565b60009150506134d7565b6060610f8f8484600085856001600160a01b0385163b6138805760405162461bcd60e51b815260206004820152601d60248201527f416464726573733a2063616c6c20746f206e6f6e2d636f6e74726163740000006044820152606401610b37565b600080866001600160a01b0316858760405161389c91906140ce565b60006040518083038185875af1925050503d80600081146138d9576040519150601f19603f3d011682016040523d82523d6000602084013e6138de565b606091505b50915091506138ee8282866138f9565b979650505050505050565b60608315613908575081610f92565b8251156139185782518084602001fd5b8160405162461bcd60e51b8152600401610b3791906140ea565b826004810192821561395d579182015b8281111561395d578254825591600101919060010190613942565b5061396992915061399b565b5090565b826004810192821561395d579160200282015b8281111561395d578251825591602001919060010190613980565b5b80821115613969576000815560010161399c565b6000602082840312156139c257600080fd5b5035919050565b6001600160a01b03811681146108a757600080fd5b600080600080600080600060e0888a0312156139f957600080fd5b87359650602088013595506040880135613a12816139c9565b94506060880135613a22816139c9565b9699959850939660808101359560a0820135955060c0909101359350915050565b600080600080600060a08688031215613a5b57600080fd5b853594506020860135935060408601359250606086013591506080860135613a82816139c9565b809150509295509295909350565b600060208284031215613aa257600080fd5b8135610f92816139c9565b60008060408385031215613ac057600080fd5b8235613acb816139c9565b91506020830135613adb816139c9565b809150509250929050565b60008060008060808587031215613afc57600080fd5b5050823594602084013594506040840135936060013592509050565b60008060408385031215613b2b57600080fd5b823591506020830135613adb816139c9565b8060005b6004811015612aef578151845260209384019390910190600101613b41565b602080825282518282018190526000919060409081850190868401855b82811015613c1557815180518552868101518786015285810151868601526060808201516001600160a01b03908116918701919091526080808301519091169086015260a08082015115159086015260c080820151613bde82880182613b3d565b505060e081015161014086015261010081015161016086015261012001516101808501526101a09093019290850190600101613b7d565b5091979650505050505050565b600080600060608486031215613c3757600080fd5b505081359360208301359350604090920135919050565b60008060408385031215613c6157600080fd5b8235613c6c816139c9565b946020939093013593505050565b634e487b7160e01b600052604160045260246000fd5b600080600080600060a08688031215613ca857600080fd5b8535613cb3816139c9565b9450602086013593506040860135925060608601359150608086013567ffffffffffffffff80821115613ce557600080fd5b818801915088601f830112613cf957600080fd5b813581811115613d0b57613d0b613c7a565b604051601f8201601f19908116603f01168101908382118183101715613d3357613d33613c7a565b816040528281528b6020848701011115613d4c57600080fd5b8260208601602083013760006020848301015280955050505050509295509295909350565b600081518084526020808501945080840160005b83811015613daa5781516001600160a01b031687529582019590820190600101613d85565b509495945050505050565b600081518084526020808501945080840160005b83811015613daa57815187529582019590820190600101613dc9565b606081526000613df86060830186613d71565b602083820381850152613e0b8287613db5565b8481036040860152855180825282870193509082019060005b81811015613e4057845183529383019391830191600101613e24565b509098975050505050505050565b60008060008060008060c08789031215613e6757600080fd5b8635613e72816139c9565b9860208801359850604088013597606081013597506080810135965060a00135945092505050565b604081526000613ead6040830185613d71565b8281036020840152613ebf8185613db5565b95945050505050565b60008060408385031215613edb57600080fd5b50508035926020909101359150565b634e487b7160e01b600052601160045260246000fd5b60008219821115613f1357613f13613eea565b500190565b634e487b7160e01b600052603260045260246000fd5b600082821015613f4057613f40613eea565b500390565b634e487b7160e01b600052603160045260246000fd5b6000816000190483118215151615613f7557613f75613eea565b500290565b600080831283600160ff1b01831281151615613f9857613f98613eea565b837f7fffffffffffffffffffffffffffffffffffffffffffffffffffffffffffffff018313811615613fcc57613fcc613eea565b50500390565b600082613fef57634e487b7160e01b600052601260045260246000fd5b500490565b60006020828403121561400657600080fd5b5051919050565b6000808212827f7fffffffffffffffffffffffffffffffffffffffffffffffffffffffffffffff0384138115161561404757614047613eea565b82600160ff1b03841281161561405f5761405f613eea565b50500190565b600060001982141561407957614079613eea565b5060010190565b60006020828403121561409257600080fd5b81518015158114610f9257600080fd5b60005b838110156140bd5781810151838201526020016140a5565b83811115612aef5750506000910152565b600082516140e08184602087016140a2565b9190910192915050565b60208152600082518060208401526141098160408501602087016140a2565b601f01601f1916919091016040019291505056fea26469706673582212208fea8228a91b03aa562d7fd1794e46d30cf767dfb0a47988b240cd64e714339764736f6c63430008090033",
  "devdoc": {
    "custom:security-contact": "admin@dcastack.com",
    "kind": "dev",
    "methods": {
      "owner()": {
        "details": "Returns the address of the current owner."
      },
      "renounceOwnership()": {
        "details": "Leaves the contract without owner. It will not be possible to call `onlyOwner` functions anymore. Can only be called by the current owner. NOTE: Renouncing ownership will leave the contract without an owner, thereby removing any functionality that is only available to the owner."
      },
      "transferOwnership(address)": {
        "details": "Transfers ownership of the contract to a new account (`newOwner`). Can only be called by the current owner."
      }
    },
    "version": 1
  },
  "userdoc": {
    "kind": "user",
    "methods": {},
    "version": 1
  },
  "storageLayout": {
    "storage": [
      {
        "astId": 7,
        "contract": "contracts/DCAStack.sol:DCAStack",
        "label": "_owner",
        "offset": 0,
        "slot": "0",
        "type": "t_address"
      },
      {
        "astId": 1620,
        "contract": "contracts/DCAStack.sol:DCAStack",
        "label": "userTokenBalances",
        "offset": 0,
        "slot": "1",
        "type": "t_mapping(t_address,t_mapping(t_address,t_uint256))"
      },
      {
        "astId": 1625,
        "contract": "contracts/DCAStack.sol:DCAStack",
        "label": "_userTokens",
        "offset": 0,
        "slot": "2",
        "type": "t_mapping(t_address,t_struct(AddressSet)1176_storage)"
      },
      {
        "astId": 1629,
        "contract": "contracts/DCAStack.sol:DCAStack",
        "label": "userGasBalances",
        "offset": 0,
        "slot": "3",
        "type": "t_mapping(t_address,t_uint256)"
      },
      {
        "astId": 1632,
        "contract": "contracts/DCAStack.sol:DCAStack",
        "label": "_userGasAddresses",
        "offset": 0,
        "slot": "4",
        "type": "t_struct(AddressSet)1176_storage"
      },
      {
        "astId": 2099,
        "contract": "contracts/DCAStack.sol:DCAStack",
        "label": "userToDcaSchedules",
        "offset": 0,
        "slot": "6",
        "type": "t_mapping(t_address,t_array(t_struct(DcaSchedule)2093_storage)dyn_storage)"
      },
      {
        "astId": 2102,
        "contract": "contracts/DCAStack.sol:DCAStack",
        "label": "_userAddresses",
        "offset": 0,
        "slot": "7",
        "type": "t_struct(AddressSet)1176_storage"
      },
      {
        "astId": 123,
        "contract": "contracts/DCAStack.sol:DCAStack",
        "label": "_status",
        "offset": 0,
        "slot": "9",
        "type": "t_uint256"
      },
      {
        "astId": 3004,
        "contract": "contracts/DCAStack.sol:DCAStack",
        "label": "MAX_INT",
        "offset": 0,
        "slot": "10",
        "type": "t_uint256"
      }
    ],
    "types": {
      "t_address": {
        "encoding": "inplace",
        "label": "address",
        "numberOfBytes": "20"
      },
      "t_array(t_bytes32)dyn_storage": {
        "base": "t_bytes32",
        "encoding": "dynamic_array",
        "label": "bytes32[]",
        "numberOfBytes": "32"
      },
      "t_array(t_struct(DcaSchedule)2093_storage)dyn_storage": {
        "base": "t_struct(DcaSchedule)2093_storage",
        "encoding": "dynamic_array",
        "label": "struct UserScheduleData.DcaSchedule[]",
        "numberOfBytes": "32"
      },
      "t_array(t_uint256)4_storage": {
        "base": "t_uint256",
        "encoding": "inplace",
        "label": "uint256[4]",
        "numberOfBytes": "128"
      },
      "t_bool": {
        "encoding": "inplace",
        "label": "bool",
        "numberOfBytes": "1"
      },
      "t_bytes32": {
        "encoding": "inplace",
        "label": "bytes32",
        "numberOfBytes": "32"
      },
      "t_mapping(t_address,t_array(t_struct(DcaSchedule)2093_storage)dyn_storage)": {
        "encoding": "mapping",
        "key": "t_address",
        "label": "mapping(address => struct UserScheduleData.DcaSchedule[])",
        "numberOfBytes": "32",
        "value": "t_array(t_struct(DcaSchedule)2093_storage)dyn_storage"
      },
      "t_mapping(t_address,t_mapping(t_address,t_uint256))": {
        "encoding": "mapping",
        "key": "t_address",
        "label": "mapping(address => mapping(address => uint256))",
        "numberOfBytes": "32",
        "value": "t_mapping(t_address,t_uint256)"
      },
      "t_mapping(t_address,t_struct(AddressSet)1176_storage)": {
        "encoding": "mapping",
        "key": "t_address",
        "label": "mapping(address => struct EnumerableSet.AddressSet)",
        "numberOfBytes": "32",
        "value": "t_struct(AddressSet)1176_storage"
      },
      "t_mapping(t_address,t_uint256)": {
        "encoding": "mapping",
        "key": "t_address",
        "label": "mapping(address => uint256)",
        "numberOfBytes": "32",
        "value": "t_uint256"
      },
      "t_mapping(t_bytes32,t_uint256)": {
        "encoding": "mapping",
        "key": "t_bytes32",
        "label": "mapping(bytes32 => uint256)",
        "numberOfBytes": "32",
        "value": "t_uint256"
      },
      "t_struct(AddressSet)1176_storage": {
        "encoding": "inplace",
        "label": "struct EnumerableSet.AddressSet",
        "members": [
          {
            "astId": 1175,
            "contract": "contracts/DCAStack.sol:DCAStack",
            "label": "_inner",
            "offset": 0,
            "slot": "0",
            "type": "t_struct(Set)875_storage"
          }
        ],
        "numberOfBytes": "64"
      },
      "t_struct(DcaSchedule)2093_storage": {
        "encoding": "inplace",
        "label": "struct UserScheduleData.DcaSchedule",
        "members": [
          {
            "astId": 2072,
            "contract": "contracts/DCAStack.sol:DCAStack",
            "label": "tradeFrequency",
            "offset": 0,
            "slot": "0",
            "type": "t_uint256"
          },
          {
            "astId": 2074,
            "contract": "contracts/DCAStack.sol:DCAStack",
            "label": "tradeAmount",
            "offset": 0,
            "slot": "1",
            "type": "t_uint256"
          },
          {
            "astId": 2076,
            "contract": "contracts/DCAStack.sol:DCAStack",
            "label": "remainingBudget",
            "offset": 0,
            "slot": "2",
            "type": "t_uint256"
          },
          {
            "astId": 2078,
            "contract": "contracts/DCAStack.sol:DCAStack",
            "label": "buyToken",
            "offset": 0,
            "slot": "3",
            "type": "t_address"
          },
          {
            "astId": 2080,
            "contract": "contracts/DCAStack.sol:DCAStack",
            "label": "sellToken",
            "offset": 0,
            "slot": "4",
            "type": "t_address"
          },
          {
            "astId": 2082,
            "contract": "contracts/DCAStack.sol:DCAStack",
            "label": "isActive",
            "offset": 20,
            "slot": "4",
            "type": "t_bool"
          },
          {
            "astId": 2086,
            "contract": "contracts/DCAStack.sol:DCAStack",
            "label": "scheduleDates",
            "offset": 0,
            "slot": "5",
            "type": "t_array(t_uint256)4_storage"
          },
          {
            "astId": 2088,
            "contract": "contracts/DCAStack.sol:DCAStack",
            "label": "soldAmount",
            "offset": 0,
            "slot": "9",
            "type": "t_uint256"
          },
          {
            "astId": 2090,
            "contract": "contracts/DCAStack.sol:DCAStack",
            "label": "boughtAmount",
            "offset": 0,
            "slot": "10",
            "type": "t_uint256"
          },
          {
            "astId": 2092,
            "contract": "contracts/DCAStack.sol:DCAStack",
            "label": "totalGas",
            "offset": 0,
            "slot": "11",
            "type": "t_uint256"
          }
        ],
        "numberOfBytes": "384"
      },
      "t_struct(Set)875_storage": {
        "encoding": "inplace",
        "label": "struct EnumerableSet.Set",
        "members": [
          {
            "astId": 870,
            "contract": "contracts/DCAStack.sol:DCAStack",
            "label": "_values",
            "offset": 0,
            "slot": "0",
            "type": "t_array(t_bytes32)dyn_storage"
          },
          {
            "astId": 874,
            "contract": "contracts/DCAStack.sol:DCAStack",
            "label": "_indexes",
            "offset": 0,
            "slot": "1",
            "type": "t_mapping(t_bytes32,t_uint256)"
          }
        ],
        "numberOfBytes": "64"
      },
      "t_uint256": {
        "encoding": "inplace",
        "label": "uint256",
        "numberOfBytes": "32"
      }
    }
  }
}