{
  "address": "0x367761085BF3C12e5DA2Df99AC6E1a824612b8fb",
  "abi": [
    {
      "anonymous": false,
      "inputs": [
        {
          "indexed": true,
          "internalType": "uint256",
          "name": "dcaScheduleId",
          "type": "uint256"
        },
        {
          "indexed": false,
          "internalType": "address",
          "name": "sellToken",
          "type": "address"
        },
        {
          "indexed": false,
          "internalType": "address",
          "name": "buyToken",
          "type": "address"
        },
        {
          "indexed": false,
          "internalType": "uint256",
          "name": "soldAmount",
          "type": "uint256"
        },
        {
          "indexed": false,
          "internalType": "uint256",
          "name": "boughtAmount",
          "type": "uint256"
        },
        {
          "indexed": false,
          "internalType": "uint256",
          "name": "remainingBudget",
          "type": "uint256"
        },
        {
          "indexed": false,
          "internalType": "bool",
          "name": "scheduleStatus",
          "type": "bool"
        },
        {
          "indexed": false,
          "internalType": "uint256",
          "name": "gasUsed",
          "type": "uint256"
        },
        {
          "indexed": false,
          "internalType": "uint256",
          "name": "gasRemaining",
          "type": "uint256"
        },
        {
          "indexed": false,
          "internalType": "uint256",
          "name": "nextRun",
          "type": "uint256"
        },
        {
          "indexed": true,
          "internalType": "address",
          "name": "dcaOwner",
          "type": "address"
        }
      ],
      "name": "BoughtTokens",
      "type": "event"
    },
    {
      "anonymous": false,
      "inputs": [
        {
          "indexed": true,
          "internalType": "address",
          "name": "sender",
          "type": "address"
        },
        {
          "indexed": false,
          "internalType": "address",
          "name": "token",
          "type": "address"
        },
        {
          "indexed": false,
          "internalType": "uint256",
          "name": "amount",
          "type": "uint256"
        }
      ],
      "name": "FundsDeposited",
      "type": "event"
    },
    {
      "anonymous": false,
      "inputs": [
        {
          "indexed": true,
          "internalType": "address",
          "name": "receiver",
          "type": "address"
        },
        {
          "indexed": false,
          "internalType": "address",
          "name": "token",
          "type": "address"
        },
        {
          "indexed": false,
          "internalType": "uint256",
          "name": "amount",
          "type": "uint256"
        }
      ],
      "name": "FundsWithdrawn",
      "type": "event"
    },
    {
      "anonymous": false,
      "inputs": [
        {
          "indexed": false,
          "internalType": "uint8",
          "name": "version",
          "type": "uint8"
        }
      ],
      "name": "Initialized",
      "type": "event"
    },
    {
      "anonymous": false,
      "inputs": [
        {
          "indexed": true,
          "internalType": "uint256",
          "name": "dcaScheduleId",
          "type": "uint256"
        },
        {
          "indexed": false,
          "internalType": "address",
          "name": "buyToken",
          "type": "address"
        },
        {
          "indexed": false,
          "internalType": "address",
          "name": "sellToken",
          "type": "address"
        },
        {
          "indexed": true,
          "internalType": "address",
          "name": "dcaOwner",
          "type": "address"
        }
      ],
      "name": "NewUserSchedule",
      "type": "event"
    },
    {
      "anonymous": false,
      "inputs": [
        {
          "indexed": true,
          "internalType": "address",
          "name": "previousOwner",
          "type": "address"
        },
        {
          "indexed": true,
          "internalType": "address",
          "name": "newOwner",
          "type": "address"
        }
      ],
      "name": "OwnershipTransferred",
      "type": "event"
    },
    {
      "stateMutability": "payable",
      "type": "fallback"
    },
    {
      "inputs": [
        {
          "internalType": "uint256",
          "name": "_tradeAmount",
          "type": "uint256"
        },
        {
          "internalType": "uint256",
          "name": "_tradeFrequency",
          "type": "uint256"
        },
        {
          "internalType": "uint256",
          "name": "_startDate",
          "type": "uint256"
        },
        {
          "internalType": "uint256",
          "name": "_endDate",
          "type": "uint256"
        },
        {
          "internalType": "address",
          "name": "_sellToken",
          "type": "address"
        }
      ],
      "name": "calculateDeposit",
      "outputs": [
        {
          "internalType": "uint256",
          "name": "",
          "type": "uint256"
        }
      ],
      "stateMutability": "view",
      "type": "function"
    },
    {
      "inputs": [
        {
          "internalType": "uint256",
          "name": "_tradeFrequency",
          "type": "uint256"
        },
        {
          "internalType": "uint256",
          "name": "_startDate",
          "type": "uint256"
        },
        {
          "internalType": "uint256",
          "name": "_endDate",
          "type": "uint256"
        }
      ],
      "name": "calculateExecutions",
      "outputs": [
        {
          "internalType": "uint256",
          "name": "",
          "type": "uint256"
        }
      ],
      "stateMutability": "pure",
      "type": "function"
    },
    {
      "inputs": [
        {
          "internalType": "uint256",
          "name": "_tradeAmount",
          "type": "uint256"
        },
        {
          "internalType": "uint256",
          "name": "_tradeFrequency",
          "type": "uint256"
        },
        {
          "internalType": "uint256",
          "name": "_startDate",
          "type": "uint256"
        },
        {
          "internalType": "uint256",
          "name": "_endDate",
          "type": "uint256"
        }
      ],
      "name": "calculateGasDeposit",
      "outputs": [
        {
          "internalType": "uint256",
          "name": "",
          "type": "uint256"
        }
      ],
      "stateMutability": "view",
      "type": "function"
    },
    {
      "inputs": [
        {
          "internalType": "uint256",
          "name": "_tradeFrequency",
          "type": "uint256"
        },
        {
          "internalType": "uint256",
          "name": "_tradeAmount",
          "type": "uint256"
        },
        {
          "internalType": "address",
          "name": "_buyToken",
          "type": "address"
        },
        {
          "internalType": "address",
          "name": "_sellToken",
          "type": "address"
        },
        {
          "internalType": "uint256",
          "name": "_startDate",
          "type": "uint256"
        },
        {
          "internalType": "uint256",
          "name": "_endDate",
          "type": "uint256"
        },
        {
          "internalType": "uint256",
          "name": "_currGasEstimate",
          "type": "uint256"
        }
      ],
      "name": "createDcaSchedule",
      "outputs": [],
      "stateMutability": "nonpayable",
      "type": "function"
    },
    {
      "inputs": [
        {
          "internalType": "uint256",
          "name": "_dcaScheduleId",
          "type": "uint256"
        }
      ],
      "name": "deleteSchedule",
      "outputs": [],
      "stateMutability": "nonpayable",
      "type": "function"
    },
    {
      "inputs": [
        {
          "internalType": "address",
          "name": "_tokenAddress",
          "type": "address"
        },
        {
          "internalType": "uint256",
          "name": "_tokenAmount",
          "type": "uint256"
        }
      ],
      "name": "depositFunds",
      "outputs": [],
      "stateMutability": "payable",
      "type": "function"
    },
    {
      "inputs": [],
      "name": "depositGas",
      "outputs": [],
      "stateMutability": "payable",
      "type": "function"
    },
    {
      "inputs": [],
      "name": "getAllUsersGasBalances",
      "outputs": [
        {
          "internalType": "uint256",
          "name": "",
          "type": "uint256"
        }
      ],
      "stateMutability": "view",
      "type": "function"
    },
    {
      "inputs": [],
      "name": "getAllUsersSchedules",
      "outputs": [
        {
          "internalType": "address[]",
          "name": "",
          "type": "address[]"
        },
        {
          "internalType": "uint256[]",
          "name": "",
          "type": "uint256[]"
        }
      ],
      "stateMutability": "view",
      "type": "function"
    },
    {
      "inputs": [
        {
          "internalType": "uint256",
          "name": "currGasEstimate",
          "type": "uint256"
        }
      ],
      "name": "getFreeGasBalance",
      "outputs": [
        {
          "internalType": "int256",
          "name": "",
          "type": "int256"
        }
      ],
      "stateMutability": "view",
      "type": "function"
    },
    {
      "inputs": [
        {
          "internalType": "address",
          "name": "_tokenAddress",
          "type": "address"
        }
      ],
      "name": "getFreeTokenBalance",
      "outputs": [
        {
          "internalType": "int256",
          "name": "",
          "type": "int256"
        }
      ],
      "stateMutability": "view",
      "type": "function"
    },
    {
      "inputs": [],
      "name": "getUserAllTokenBalances",
      "outputs": [
        {
          "internalType": "address[]",
          "name": "",
          "type": "address[]"
        },
        {
          "internalType": "uint256[]",
          "name": "",
          "type": "uint256[]"
        },
        {
          "internalType": "int256[]",
          "name": "",
          "type": "int256[]"
        }
      ],
      "stateMutability": "view",
      "type": "function"
    },
    {
      "inputs": [],
      "name": "getUserSchedules",
      "outputs": [
        {
          "components": [
            {
              "internalType": "uint256",
              "name": "tradeFrequency",
              "type": "uint256"
            },
            {
              "internalType": "uint256",
              "name": "tradeAmount",
              "type": "uint256"
            },
            {
              "internalType": "uint256",
              "name": "remainingBudget",
              "type": "uint256"
            },
            {
              "internalType": "address",
              "name": "buyToken",
              "type": "address"
            },
            {
              "internalType": "address",
              "name": "sellToken",
              "type": "address"
            },
            {
              "internalType": "bool",
              "name": "isActive",
              "type": "bool"
            },
            {
              "internalType": "uint256[4]",
              "name": "scheduleDates",
              "type": "uint256[4]"
            },
            {
              "internalType": "uint256",
              "name": "soldAmount",
              "type": "uint256"
            },
            {
              "internalType": "uint256",
              "name": "boughtAmount",
              "type": "uint256"
            },
            {
              "internalType": "uint256",
              "name": "totalGas",
              "type": "uint256"
            }
          ],
          "internalType": "struct UserScheduleData.DcaSchedule[]",
          "name": "",
          "type": "tuple[]"
        }
      ],
      "stateMutability": "view",
      "type": "function"
    },
    {
      "inputs": [],
      "name": "owner",
      "outputs": [
        {
          "internalType": "address",
          "name": "",
          "type": "address"
        }
      ],
      "stateMutability": "view",
      "type": "function"
    },
    {
      "inputs": [],
      "name": "renounceOwnership",
      "outputs": [],
      "stateMutability": "nonpayable",
      "type": "function"
    },
    {
      "inputs": [
        {
          "internalType": "address",
          "name": "dcaOwner",
          "type": "address"
        },
        {
          "internalType": "uint256",
          "name": "scheduleId",
          "type": "uint256"
        },
        {
          "internalType": "uint256",
          "name": "currentGasPrice",
          "type": "uint256"
        },
        {
          "internalType": "uint256",
          "name": "currentDateTime",
          "type": "uint256"
        },
        {
          "internalType": "bytes",
          "name": "swapCallData",
          "type": "bytes"
        },
        {
          "internalType": "address",
          "name": "aggRouter1inch",
          "type": "address"
        }
      ],
      "name": "runUserDCA",
      "outputs": [],
      "stateMutability": "payable",
      "type": "function"
    },
    {
      "inputs": [
        {
          "internalType": "address",
          "name": "newOwner",
          "type": "address"
        }
      ],
      "name": "transferOwnership",
      "outputs": [],
      "stateMutability": "nonpayable",
      "type": "function"
    },
    {
      "inputs": [
        {
          "internalType": "address",
          "name": "",
          "type": "address"
        }
      ],
      "name": "userGasBalances",
      "outputs": [
        {
          "internalType": "uint256",
          "name": "",
          "type": "uint256"
        }
      ],
      "stateMutability": "view",
      "type": "function"
    },
    {
      "inputs": [
        {
          "internalType": "address",
          "name": "",
          "type": "address"
        },
        {
          "internalType": "uint256",
          "name": "",
          "type": "uint256"
        }
      ],
      "name": "userToDcaSchedules",
      "outputs": [
        {
          "internalType": "uint256",
          "name": "tradeFrequency",
          "type": "uint256"
        },
        {
          "internalType": "uint256",
          "name": "tradeAmount",
          "type": "uint256"
        },
        {
          "internalType": "uint256",
          "name": "remainingBudget",
          "type": "uint256"
        },
        {
          "internalType": "address",
          "name": "buyToken",
          "type": "address"
        },
        {
          "internalType": "address",
          "name": "sellToken",
          "type": "address"
        },
        {
          "internalType": "bool",
          "name": "isActive",
          "type": "bool"
        },
        {
          "internalType": "uint256",
          "name": "soldAmount",
          "type": "uint256"
        },
        {
          "internalType": "uint256",
          "name": "boughtAmount",
          "type": "uint256"
        },
        {
          "internalType": "uint256",
          "name": "totalGas",
          "type": "uint256"
        }
      ],
      "stateMutability": "view",
      "type": "function"
    },
    {
      "inputs": [
        {
          "internalType": "address",
          "name": "",
          "type": "address"
        },
        {
          "internalType": "address",
          "name": "",
          "type": "address"
        }
      ],
      "name": "userTokenBalances",
      "outputs": [
        {
          "internalType": "uint256",
          "name": "",
          "type": "uint256"
        }
      ],
      "stateMutability": "view",
      "type": "function"
    },
    {
      "inputs": [
        {
          "internalType": "address",
          "name": "_sellToken",
          "type": "address"
        },
        {
          "internalType": "uint256",
          "name": "_tradeAmount",
          "type": "uint256"
        },
        {
          "internalType": "uint256",
          "name": "_tradeFrequency",
          "type": "uint256"
        },
        {
          "internalType": "uint256",
          "name": "_startDate",
          "type": "uint256"
        },
        {
          "internalType": "uint256",
          "name": "_endDate",
          "type": "uint256"
        },
        {
          "internalType": "uint256",
          "name": "_currGasEstimate",
          "type": "uint256"
        }
      ],
      "name": "validateDcaSchedule",
      "outputs": [],
      "stateMutability": "view",
      "type": "function"
    },
    {
      "inputs": [
        {
          "internalType": "address",
          "name": "_tokenAddress",
          "type": "address"
        },
        {
          "internalType": "uint256",
          "name": "_tokenAmount",
          "type": "uint256"
        }
      ],
      "name": "withdrawFunds",
      "outputs": [],
      "stateMutability": "nonpayable",
      "type": "function"
    },
    {
      "inputs": [
        {
          "internalType": "uint256",
          "name": "_tokenAmount",
          "type": "uint256"
        }
      ],
      "name": "withdrawGas",
      "outputs": [],
      "stateMutability": "nonpayable",
      "type": "function"
    },
    {
      "stateMutability": "payable",
      "type": "receive"
    }
  ],
  "transactionHash": "0xed1eb5166b61eb0185515e2f260812cc27288c4ef7265482816a9507103f66c1",
  "args": [],
  "numDeployments": 1,
  "solcInputHash": "dcc5c6291f9a1f85e61f7602104883d0",
  "bytecode": "0x608060405234801561001057600080fd5b50613bd0806100206000396000f3fe6080604052600436106101845760003560e01c8063921b004b116100d6578063aef8d6a31161007f578063db289ce811610059578063db289ce814610460578063dcaf298814610480578063f2fde38b146104a357610193565b8063aef8d6a3146103b1578063bd0d3949146103d1578063c10753291461044057610193565b8063a185341e116100b0578063a185341e14610378578063add64c971461038d578063ae9bb6921461019357610193565b8063921b004b14610332578063996b6fa1146103455780639d21bfeb1461035857610193565b80635c576c31116101385780638da5cb5b116101125780638da5cb5b146102ca57806391018107146102f2578063916575441461031257610193565b80635c576c3114610273578063715018a614610293578063886984f1146102a857610193565b806325b217321161016957806325b21732146101db5780634269723f1461020e57806345f2d1051461023b57610193565b80630847e4831461019b5780632554cdba146101bb57610193565b36610193576101916104c3565b005b6101916104c3565b3480156101a757600080fd5b506101916101b6366004613474565b61054e565b3480156101c757600080fd5b506101916101d63660046134a9565b610809565b3480156101e757600080fd5b506101fb6101f636600461350a565b610a4f565b6040519081526020015b60405180910390f35b34801561021a57600080fd5b506101fb610229366004613553565b60676020526000908152604090205481565b34801561024757600080fd5b506101fb61025636600461356e565b606560209081526000928352604080842090915290825290205481565b34801561027f57600080fd5b506101fb61028e3660046135a1565b610b20565b34801561029f57600080fd5b50610191610beb565b3480156102b457600080fd5b506102bd610bff565b60405161020591906135f6565b3480156102d657600080fd5b506033546040516001600160a01b039091168152602001610205565b3480156102fe57600080fd5b506101fb61030d3660046136b8565b610d11565b34801561031e57600080fd5b5061019161032d366004613474565b610dda565b6101916103403660046136e4565b610fd0565b610191610353366004613724565b6111c6565b34801561036457600080fd5b506101fb610373366004613553565b6119bb565b34801561038457600080fd5b506101fb611ac1565b34801561039957600080fd5b506103a2611b2a565b60405161020593929190613886565b3480156103bd57600080fd5b506101fb6103cc366004613474565b611d19565b3480156103dd57600080fd5b506103f16103ec3660046136e4565b611e3a565b60408051998a5260208a0198909852968801959095526001600160a01b039384166060880152929091166080860152151560a085015260c084015260e083015261010082015261012001610205565b34801561044c57600080fd5b5061019161045b3660046136e4565b611eb4565b34801561046c57600080fd5b5061019161047b3660046138ef565b6120f9565b34801561048c57600080fd5b506104956121c0565b604051610205929190613939565b3480156104af57600080fd5b506101916104be366004613553565b612323565b3360009081526067602052604090205434906104e090829061397d565b336000818152606760205260409020919091556104fc906123b0565b6040805173eeeeeeeeeeeeeeeeeeeeeeeeeeeeeeeeeeeeeeee81526020810183905233917ff0d0e99cae184d0187b093b48894117462462379674a6e11d89c3fbb618e96b0910160405180910390a250565b336000908152606a6020526040902080548290811061056f5761056f613995565b600091825260208220600c90910201818155600181018290556002810182905560038101805473ffffffffffffffffffffffffffffffffffffffff1916905560048101805474ffffffffffffffffffffffffffffffffffffffffff19169055600581018290556006810182905560078101829055600881018290559050600060098201819055600a8201819055600b909101819055338152606a60205260409020805461061e906001906139ab565b8154811061062e5761062e613995565b90600052602060002090600c0201606a6000336001600160a01b03166001600160a01b03168152602001908152602001600020828154811061067257610672613995565b600091825260209091208254600c909202019081556001808301549082015560028083015490820155600380830154908201805473ffffffffffffffffffffffffffffffffffffffff199081166001600160a01b0393841617909155600480850180548286018054948516919095169081178555905460ff600160a01b918290041615150274ffffffffffffffffffffffffffffffffffffffffff19909316179190911790915561072c90600580840191908501906133f6565b5060098281015490820155600a8083015490820155600b91820154910155336000908152606a60205260409020805480610768576107686139c2565b600082815260208120600c6000199390930192830201818155600181018290556002810182905560038101805473ffffffffffffffffffffffffffffffffffffffff1916905560048101805474ffffffffffffffffffffffffffffffffffffffffff191690556005810182905560068101829055600781018290556008810182905560098101829055600a8101829055600b015590556108066123bf565b50565b6000610816888585610d11565b9050600061082482896139d8565b905061083486898b8888886120f9565b61083c6123de565b61084633886123e9565b606a6000336001600160a01b03166001600160a01b031681526020019081526020016000206040518061014001604052808b81526020018a8152602001838152602001896001600160a01b03168152602001886001600160a01b031681526020016001151581526020016040518060800160405280898152602001600081526020018981526020018881525081526020016000815260200160008152602001600081525090806001815401808255809150506001900390600052602060002090600c020160009091909190915060008201518160000155602082015181600101556040820151816002015560608201518160030160006101000a8154816001600160a01b0302191690836001600160a01b0316021790555060808201518160040160006101000a8154816001600160a01b0302191690836001600160a01b0316021790555060a08201518160040160146101000a81548160ff02191690831515021790555060c0820151816005019060046109c2929190613431565b5060e08201516009820155610100820151600a82015561012090910151600b90910155336000818152606a6020526040902054610a01906001906139ab565b604080516001600160a01b03808c1682528a1660208201527f02c7cf82c34b568fd76896e8da79a4de6ce78cd85af0a1c5321205a2781ba4c1910160405180910390a3505050505050505050565b600080610a5d868686610d11565b905060008111610a9f5760405162461bcd60e51b8152602060048201526008602482015267496e76616c69642160c01b60448201526064015b60405180910390fd5b60008711610ad85760405162461bcd60e51b81526020600482015260066024820152654e6f7420302160d01b6044820152606401610a96565b6000610ae482896139d8565b90506000610af1856119bb565b9050600080610b0083856139f7565b1315610b1357610b1082846139f7565b90505b9998505050505050505050565b600080610b2e858585610d11565b905060008111610b6b5760405162461bcd60e51b8152602060048201526008602482015267496e76616c69642160c01b6044820152606401610a96565b60008611610ba45760405162461bcd60e51b81526020600482015260066024820152654e6f7420302160d01b6044820152606401610a96565b6000610bb082886139d8565b90506000610bbd88611d19565b9050600080610bcc83856139f7565b1315610bdf57610bdc82846139f7565b90505b98975050505050505050565b610bf3612436565b610bfd6000612490565b565b336000908152606a60209081526040808320805482518185028101850190935280835260609492939192909184015b82821015610d085760008481526020908190206040805161014081018252600c86029092018054835260018101549383019390935260028301548282015260038301546001600160a01b039081166060840152600480850154918216608080860191909152600160a01b90920460ff16151560a085015282519182019283905292939260c085019260058501919082845b815481526020019060010190808311610cbf575050505050815260200160098201548152602001600a8201548152602001600b8201548152505081526020019060010190610c2e565b50505050905090565b6000828211610d625760405162461bcd60e51b815260206004820152600e60248201527f496e76616c6964206461746573210000000000000000000000000000000000006044820152606401610a96565b83610d6d84846139ab565b1015610dbb5760405162461bcd60e51b815260206004820152600d60248201527f496e76616c6964206578656321000000000000000000000000000000000000006044820152606401610a96565b83610dc684846139ab565b610dd09190613a4f565b90505b9392505050565b6002606d541415610e2d5760405162461bcd60e51b815260206004820152601f60248201527f5265656e7472616e637947756172643a207265656e7472616e742063616c6c006044820152606401610a96565b6002606d5533600090815260676020526040902054811115610eb75760405162461bcd60e51b815260206004820152602860248201527f43616e6e6f74207769746864726177206d6f726520676173207468616e20646560448201527f706f7369746564210000000000000000000000000000000000000000000000006064820152608401610a96565b33600090815260676020526040902054610ed29082906139ab565b3360008181526067602052604080822093909355915183908381818185875af1925050503d8060008114610f22576040519150601f19603f3d011682016040523d82523d6000602084013e610f27565b606091505b5050905080610f785760405162461bcd60e51b815260206004820152601360248201527f7769746864726177476173206661696c656421000000000000000000000000006044820152606401610a96565b6040805173eeeeeeeeeeeeeeeeeeeeeeeeeeeeeeeeeeeeeeee81526020810184905233917fa92ff919b850e4909ab2261d907ef955f11bc1716733a6cbece38d163a69af8a910160405180910390a250506001606d55565b60006001600160a01b03831673eeeeeeeeeeeeeeeeeeeeeeeeeeeeeeeeeeeeeeee1415610ffe57503461111d565b6040516370a0823160e01b815230600482015283906000906001600160a01b038316906370a082319060240160206040518083038186803b15801561104257600080fd5b505afa158015611056573d6000803e3d6000fd5b505050506040513d601f19601f8201168201806040525081019061107a9190613a71565b90506110916001600160a01b0383163330876124ef565b6040516370a0823160e01b81523060048201526000906001600160a01b038416906370a082319060240160206040518083038186803b1580156110d357600080fd5b505afa1580156110e7573d6000803e3d6000fd5b505050506040513d601f19601f8201168201806040525081019061110b9190613a71565b905061111782826139ab565b93505050505b3360009081526065602090815260408083206001600160a01b038716845290915290205461114c90829061397d565b3360008181526065602090815260408083206001600160a01b038916845290915290209190915561117d90846123e9565b604080516001600160a01b03851681526020810183905233917ff0d0e99cae184d0187b093b48894117462462379674a6e11d89c3fbb618e96b0910160405180910390a2505050565b6111ce612436565b60005a6001600160a01b038816600090815260676020526040902054909150851061123b5760405162461bcd60e51b815260206004820152600860248201527f4c6f7720476173210000000000000000000000000000000000000000000000006044820152606401610a96565b6001600160a01b0387166000908152606a6020526040902080548790811061126557611265613995565b90600052602060002090600c020160050160026004811061128857611288613995565b01548410156112d95760405162461bcd60e51b815260206004820152600a60248201527f4e6f7420526561647921000000000000000000000000000000000000000000006044820152606401610a96565b6001600160a01b0387166000908152606a6020526040902080548790811061130357611303613995565b90600052602060002090600c020160040160149054906101000a900460ff16151560011515146113755760405162461bcd60e51b815260206004820152600960248201527f436f6d706c6574652100000000000000000000000000000000000000000000006044820152606401610a96565b6001600160a01b0387166000908152606a6020526040812080548890811061139f5761139f613995565b600091825260208083206004600c9093020191909101546001600160a01b038b81168452606a90925260408320805492909116935090899081106113e5576113e5613995565b600091825260208083206001600c9093020191909101546001600160a01b03808d1684526065835260408085209187168552925291205490915081111561146e5760405162461bcd60e51b815260206004820152600c60248201527f4c6f772042616c616e63652100000000000000000000000000000000000000006044820152606401610a96565b6001600160a01b0389166000908152606a6020526040812080548a90811061149857611498613995565b90600052602060002090600c020160020154116114f75760405162461bcd60e51b815260206004820152601260248201527f5363686564756c6520636f6d706c6574652100000000000000000000000000006044820152606401610a96565b6001600160a01b0389166000908152606a602052604081208054849291908b90811061152557611525613995565b600091825260209091206003600c9092020101546001600160a01b0316905061156a826001600160a01b031673eeeeeeeeeeeeeeeeeeeeeeeeeeeeeeeeeeeeeeee1490565b6116ad576040517fdd62ed3e0000000000000000000000000000000000000000000000000000000081523060048201526001600160a01b03878116602483015284919084169063dd62ed3e9060440160206040518083038186803b1580156115d157600080fd5b505afa1580156115e5573d6000803e3d6000fd5b505050506040513d601f19601f820116820180604052508101906116099190613a71565b10156116ad576040517f095ea7b30000000000000000000000000000000000000000000000000000000081526001600160a01b038781166004830152600019602483015283169063095ea7b390604401602060405180830381600087803b15801561167357600080fd5b505af1158015611687573d6000803e3d6000fd5b505050506040513d601f19601f820116820180604052508101906116ab9190613a8a565b505b600073eeeeeeeeeeeeeeeeeeeeeeeeeeeeeeeeeeeeeeee6001600160a01b03831614611751576040516370a0823160e01b81523060048201526001600160a01b038316906370a082319060240160206040518083038186803b15801561171257600080fd5b505afa158015611726573d6000803e3d6000fd5b505050506040513d601f19601f8201168201806040525081019061174a9190613a71565b9050611754565b50475b600073eeeeeeeeeeeeeeeeeeeeeeeeeeeeeeeeeeeeeeee6001600160a01b038516146117f8576040516370a0823160e01b81523060048201526001600160a01b038516906370a082319060240160206040518083038186803b1580156117b957600080fd5b505afa1580156117cd573d6000803e3d6000fd5b505050506040513d601f19601f820116820180604052508101906117f19190613a71565b90506117fb565b50475b6000808a5160208c01348c5af13d6000803e8080156118195761181e565b3d6000fd5b505073eeeeeeeeeeeeeeeeeeeeeeeeeeeeeeeeeeeeeeee6001600160a01b038416146118ce576040516370a0823160e01b815230600482015282906001600160a01b038516906370a082319060240160206040518083038186803b15801561188557600080fd5b505afa158015611899573d6000803e3d6000fd5b505050506040513d601f19601f820116820180604052508101906118bd9190613a71565b6118c791906139ab565b91506118db565b6118d882476139ab565b91505b73eeeeeeeeeeeeeeeeeeeeeeeeeeeeeeeeeeeeeeee6001600160a01b03851614611987576040516370a0823160e01b81523060048201526001600160a01b038516906370a082319060240160206040518083038186803b15801561193e57600080fd5b505afa158015611952573d6000803e3d6000fd5b505050506040513d601f19601f820116820180604052508101906119769190613a71565b61198090826139ab565b9050611994565b61199147826139ab565b90505b6119ac8d8d83855a6119a6908d6139ab565b8f6125a6565b50505050505050505050505050565b6000806119c6610bff565b3360009081526065602090815260408083206001600160a01b03881684529091528120548251929350916119fb575080611ab9565b6000805b8451811015611aaa57866001600160a01b0316858281518110611a2457611a24613995565b6020026020010151608001516001600160a01b0316148015611a675750848181518110611a5357611a53613995565b602002602001015160a00151151560011515145b15611a9857848181518110611a7e57611a7e613995565b60200260200101516040015182611a959190613aac565b91505b80611aa281613b04565b9150506119ff565b50611ab581846139f7565b9150505b949350505050565b600080611ace6068612faa565b90506000805b82811015611b235760676000611aeb606884612fba565b6001600160a01b03168152602081019190915260400160002054611b0f908361397d565b915080611b1b81613b04565b915050611ad4565b5092915050565b60608060606000611b39612fc6565b905060008167ffffffffffffffff811115611b5657611b5661370e565b604051908082528060200260200182016040528015611b7f578160200160208202803683370190505b50905060008267ffffffffffffffff811115611b9d57611b9d61370e565b604051908082528060200260200182016040528015611bc6578160200160208202803683370190505b50905060008367ffffffffffffffff811115611be457611be461370e565b604051908082528060200260200182016040528015611c0d578160200160208202803683370190505b50905060005b84811015611d0b57611c2481612fe3565b848281518110611c3657611c36613995565b6001600160a01b039092166020928302919091018201523360009081526065909152604081208551909190869084908110611c7357611c73613995565b60200260200101516001600160a01b03166001600160a01b0316815260200190815260200160002054838281518110611cae57611cae613995565b602002602001018181525050611cdc848281518110611ccf57611ccf613995565b60200260200101516119bb565b828281518110611cee57611cee613995565b602090810291909101015280611d0381613b04565b915050611c13565b509196909550909350915050565b600080611d24610bff565b33600090815260676020526040812054825192935091611d45575080611ab9565b6000805b8451811015611aaa57848181518110611d6457611d64613995565b602002602001015160a001511515600115151415611e28576000611e0e868381518110611d9357611d93613995565b602002602001015160000151878481518110611db157611db1613995565b602002602001015160c00151600260048110611dcf57611dcf613995565b6020020151888581518110611de657611de6613995565b602002602001015160c00151600360048110611e0457611e04613995565b6020020151610d11565b9050611e1a88826139d8565b611e249084613aac565b9250505b80611e3281613b04565b915050611d49565b606a6020528160005260406000208181548110611e5657600080fd5b60009182526020909120600c90910201805460018201546002830154600384015460048501546009860154600a870154600b9097015495985093965091946001600160a01b039182169491831693600160a01b90930460ff16929189565b6002606d541415611f075760405162461bcd60e51b815260206004820152601f60248201527f5265656e7472616e637947756172643a207265656e7472616e742063616c6c006044820152606401610a96565b6002606d553360009081526065602090815260408083206001600160a01b038616845290915290205481811015611fa55760405162461bcd60e51b8152602060048201526024808201527f43616e6e6f74207769746864726177206d6f7265207468616e206465706f736960448201527f74656421000000000000000000000000000000000000000000000000000000006064820152608401610a96565b3360009081526065602090815260408083206001600160a01b038716845290915281208054849290611fd89084906139ab565b90915550506001600160a01b03831673eeeeeeeeeeeeeeeeeeeeeeeeeeeeeeeeeeeeeeee14156120a057604051600090339084908381818185875af1925050503d8060008114612044576040519150601f19603f3d011682016040523d82523d6000602084013e612049565b606091505b505090508061209a5760405162461bcd60e51b815260206004820152601560248201527f776974686472617746756e6473206661696c65642100000000000000000000006044820152606401610a96565b506120ab565b6120ab833384612ffc565b604080516001600160a01b03851681526020810184905233917fa92ff919b850e4909ab2261d907ef955f11bc1716733a6cbece38d163a69af8a910160405180910390a250506001606d5550565b6000612108868686868b610a4f565b905080156121585760405162461bcd60e51b815260206004820152600860248201527f4c6f772062616c210000000000000000000000000000000000000000000000006044820152606401610a96565b600061216683878787610b20565b905080156121b65760405162461bcd60e51b815260206004820152600860248201527f4c6f7720676173210000000000000000000000000000000000000000000000006044820152606401610a96565b5050505050505050565b60608060006121cf606b612faa565b905060008167ffffffffffffffff8111156121ec576121ec61370e565b604051908082528060200260200182016040528015612215578160200160208202803683370190505b50905060008267ffffffffffffffff8111156122335761223361370e565b60405190808252806020026020018201604052801561225c578160200160208202803683370190505b50905060005b8381101561231857612275606b82612fba565b83828151811061228757612287613995565b60200260200101906001600160a01b031690816001600160a01b031681525050606a60008483815181106122bd576122bd613995565b60200260200101516001600160a01b03166001600160a01b03168152602001908152602001600020805490508282815181106122fb576122fb613995565b60209081029190910101528061231081613b04565b915050612262565b509094909350915050565b61232b612436565b6001600160a01b0381166123a75760405162461bcd60e51b815260206004820152602660248201527f4f776e61626c653a206e6577206f776e657220697320746865207a65726f206160448201527f64647265737300000000000000000000000000000000000000000000000000006064820152608401610a96565b61080681612490565b6123bb606882613045565b5050565b336000908152606a6020526040902054610bfd57610806606b3361305a565b610806606b33613045565b6001600160a01b038216600090815260666020526040902061240b908261306f565b6123bb576001600160a01b03821660009081526066602052604090206124319082613045565b505050565b6033546001600160a01b03163314610bfd5760405162461bcd60e51b815260206004820181905260248201527f4f776e61626c653a2063616c6c6572206973206e6f7420746865206f776e65726044820152606401610a96565b603380546001600160a01b0383811673ffffffffffffffffffffffffffffffffffffffff19831681179093556040519116919082907f8be0079c531659141344cd1fd0a4f28419497f9722a3daafe3b4186f6b6457e090600090a35050565b6040516001600160a01b03808516602483015283166044820152606481018290526125a09085907f23b872dd00000000000000000000000000000000000000000000000000000000906084015b60408051601f198184030181529190526020810180517bffffffffffffffffffffffffffffffffffffffffffffffffffffffff167fffffffff0000000000000000000000000000000000000000000000000000000090931692909217909152613091565b50505050565b6002606d5414156125f95760405162461bcd60e51b815260206004820152601f60248201527f5265656e7472616e637947756172643a207265656e7472616e742063616c6c006044820152606401610a96565b6002606d55612606612436565b60005a6001600160a01b0388166000908152606a60205260409020805491925086918890811061263857612638613995565b90600052602060002090600c02016002015461265491906139ab565b6001600160a01b0388166000908152606a6020526040902080548890811061267e5761267e613995565b600091825260208083206002600c9093020191909101929092556001600160a01b0389168152606582526040808220606a9093528120805488939291908a9081106126cb576126cb613995565b600091825260208083206004600c9093020191909101546001600160a01b0316835282019290925260400190205461270391906139ab565b6001600160a01b0388166000908152606560209081526040808320606a909252822080549192918a90811061273a5761273a613995565b600091825260208083206004600c9093020191909101546001600160a01b039081168452838201949094526040928301822094909455918a168252606a9092522080548790811061278d5761278d613995565b90600052602060002090600c02016005016002600481106127b0576127b0613995565b01546001600160a01b0388166000908152606a602052604090208054889081106127dc576127dc613995565b90600052602060002090600c02016005016001600481106127ff576127ff613995565b01556001600160a01b0387166000908152606a6020526040902080548790811061282b5761282b613995565b90600052602060002090600c0201600201546000141561289c576001600160a01b0387166000908152606a6020526040812080548890811061286f5761286f613995565b90600052602060002090600c020160040160146101000a81548160ff021916908315150217905550612abd565b6001600160a01b0387166000908152606a60205260408120805461297f9190899081106128cb576128cb613995565b60009182526020808320600c909202909101546001600160a01b038c168352606a909152604090912080548a90811061290657612906613995565b90600052602060002090600c020160050160026004811061292957612929613995565b01546001600160a01b038b166000908152606a6020526040902080548b90811061295557612955613995565b90600052602060002090600c020160050160036004811061297857612978613995565b0154610d11565b6001600160a01b0389166000908152606a60205260409020805491925090889081106129ad576129ad613995565b90600052602060002090600c020160000154836129ca919061397d565b6001600160a01b0389166000908152606a602052604090208054899081106129f4576129f4613995565b90600052602060002090600c0201600501600260048110612a1757612a17613995565b01556001600160a01b0388166000908152606a60205260409020805482919089908110612a4657612a46613995565b90600052602060002090600c020160000154612a6291906139d8565b612a6c908461397d565b6001600160a01b0389166000908152606a60205260409020805489908110612a9657612a96613995565b90600052602060002090600c0201600501600360048110612ab957612ab9613995565b0155505b6001600160a01b0387166000908152606560209081526040808320606a90925282208054879391908a908110612af557612af5613995565b600091825260208083206003600c9093020191909101546001600160a01b03168352820192909252604001902054612b2d919061397d565b6001600160a01b0388166000908152606560209081526040808320606a909252822080549192918a908110612b6457612b64613995565b600091825260208083206003600c9093020191909101546001600160a01b039081168452838201949094526040928301822094909455918a168252606a90925220805483919088908110612bba57612bba613995565b90600052602060002090600c0201600501600160048110612bdd57612bdd613995565b01556001600160a01b0387166000908152606a60205260409020805486919088908110612c0c57612c0c613995565b90600052602060002090600c02016009016000828254612c2c919061397d565b90915550506001600160a01b0387166000908152606a60205260409020805485919088908110612c5e57612c5e613995565b90600052602060002090600c0201600a016000828254612c7e919061397d565b90915550600090503a5a612c9290846139ab565b612c9c908661397d565b612ca691906139d8565b6001600160a01b038916600090815260676020526040812080549293508392909190612cd39084906139ab565b90915550506001600160a01b0388166000908152606a60205260409020805482919089908110612d0557612d05613995565b90600052602060002090600c0201600b016000828254612d25919061397d565b9091555050604051600090339083908381818185875af1925050503d8060008114612d6c576040519150601f19603f3d011682016040523d82523d6000602084013e612d71565b606091505b5050905080612dc25760405162461bcd60e51b815260206004820152601260248201527f47617320726566756e64206661696c65642100000000000000000000000000006044820152606401610a96565b6001600160a01b0389166000908152606a6020526040812080548a908110612dec57612dec613995565b60009182526020918290206040805161014081018252600c939093029091018054835260018101549383019390935260028301548282015260038301546001600160a01b039081166060840152600480850154918216608080860191909152600160a01b90920460ff16151560a085015282519182019283905292939260c085019260058501919082845b815481526020019060010190808311612e77575050505050815260200160098201548152602001600a8201548152602001600b8201548152505090506000606760008c6001600160a01b03166001600160a01b031681526020019081526020016000205490508a6001600160a01b03168a7f7330fde8068b0dd384e32e6f7deb7ed2599b5cbc5d856011d3f958d528ef5540846080015185606001518d8d88604001518960a001518c8a8c60c00151600260048110612f3857612f38613995565b60209081029190910151604080516001600160a01b039b8c1681529a909916918a01919091529688019590955260608701939093526080860191909152151560a085015260c084015260e08301526101008201526101200160405180910390a350506001606d55505050505050505050565b6000612fb4825490565b92915050565b6000610dd38383613176565b336000908152606660205260408120612fde90612faa565b905090565b336000908152606660205260408120612fb49083612fba565b6040516001600160a01b0383166024820152604481018290526124319084907fa9059cbb000000000000000000000000000000000000000000000000000000009060640161253c565b6000610dd3836001600160a01b0384166131a0565b6000610dd3836001600160a01b0384166131ef565b6001600160a01b03811660009081526001830160205260408120541515610dd3565b60006130e6826040518060400160405280602081526020017f5361666545524332303a206c6f772d6c6576656c2063616c6c206661696c6564815250856001600160a01b03166132e29092919063ffffffff16565b80519091501561243157808060200190518101906131049190613a8a565b6124315760405162461bcd60e51b815260206004820152602a60248201527f5361666545524332303a204552433230206f7065726174696f6e20646964206e60448201527f6f742073756363656564000000000000000000000000000000000000000000006064820152608401610a96565b600082600001828154811061318d5761318d613995565b9060005260206000200154905092915050565b60008181526001830160205260408120546131e757508154600181810184556000848152602080822090930184905584548482528286019093526040902091909155612fb4565b506000612fb4565b600081815260018301602052604081205480156132d85760006132136001836139ab565b8554909150600090613227906001906139ab565b905081811461328c57600086600001828154811061324757613247613995565b906000526020600020015490508087600001848154811061326a5761326a613995565b6000918252602080832090910192909255918252600188019052604090208390555b855486908061329d5761329d6139c2565b600190038181906000526020600020016000905590558560010160008681526020019081526020016000206000905560019350505050612fb4565b6000915050612fb4565b6060610dd08484600085856001600160a01b0385163b6133445760405162461bcd60e51b815260206004820152601d60248201527f416464726573733a2063616c6c20746f206e6f6e2d636f6e74726163740000006044820152606401610a96565b600080866001600160a01b031685876040516133609190613b4b565b60006040518083038185875af1925050503d806000811461339d576040519150601f19603f3d011682016040523d82523d6000602084013e6133a2565b606091505b50915091506133b28282866133bd565b979650505050505050565b606083156133cc575081610dd3565b8251156133dc5782518084602001fd5b8160405162461bcd60e51b8152600401610a969190613b67565b8260048101928215613421579182015b82811115613421578254825591600101919060010190613406565b5061342d92915061345f565b5090565b8260048101928215613421579160200282015b82811115613421578251825591602001919060010190613444565b5b8082111561342d5760008155600101613460565b60006020828403121561348657600080fd5b5035919050565b80356001600160a01b03811681146134a457600080fd5b919050565b600080600080600080600060e0888a0312156134c457600080fd5b87359650602088013595506134db6040890161348d565b94506134e96060890161348d565b9699959850939660808101359560a0820135955060c0909101359350915050565b600080600080600060a0868803121561352257600080fd5b853594506020860135935060408601359250606086013591506135476080870161348d565b90509295509295909350565b60006020828403121561356557600080fd5b610dd38261348d565b6000806040838503121561358157600080fd5b61358a8361348d565b91506135986020840161348d565b90509250929050565b600080600080608085870312156135b757600080fd5b5050823594602084013594506040840135936060013592509050565b8060005b60048110156125a05781518452602093840193909101906001016135d7565b602080825282518282018190526000919060409081850190868401855b828110156136ab57815180518552868101518786015285810151868601526060808201516001600160a01b03908116918701919091526080808301519091169086015260a08082015115159086015260c080820151613674828801826135d3565b505060e081015161014086015261010081015161016086015261012001516101808501526101a09093019290850190600101613613565b5091979650505050505050565b6000806000606084860312156136cd57600080fd5b505081359360208301359350604090920135919050565b600080604083850312156136f757600080fd5b6137008361348d565b946020939093013593505050565b634e487b7160e01b600052604160045260246000fd5b60008060008060008060c0878903121561373d57600080fd5b6137468761348d565b9550602087013594506040870135935060608701359250608087013567ffffffffffffffff8082111561377857600080fd5b818901915089601f83011261378c57600080fd5b81358181111561379e5761379e61370e565b604051601f8201601f19908116603f011681019083821181831017156137c6576137c661370e565b816040528281528c60208487010111156137df57600080fd5b82602086016020830137600060208483010152809650505050505061380660a0880161348d565b90509295509295509295565b600081518084526020808501945080840160005b8381101561384b5781516001600160a01b031687529582019590820190600101613826565b509495945050505050565b600081518084526020808501945080840160005b8381101561384b5781518752958201959082019060010161386a565b6060815260006138996060830186613812565b6020838203818501526138ac8287613856565b8481036040860152855180825282870193509082019060005b818110156138e1578451835293830193918301916001016138c5565b509098975050505050505050565b60008060008060008060c0878903121561390857600080fd5b6139118761348d565b9860208801359850604088013597606081013597506080810135965060a00135945092505050565b60408152600061394c6040830185613812565b828103602084015261395e8185613856565b95945050505050565b634e487b7160e01b600052601160045260246000fd5b6000821982111561399057613990613967565b500190565b634e487b7160e01b600052603260045260246000fd5b6000828210156139bd576139bd613967565b500390565b634e487b7160e01b600052603160045260246000fd5b60008160001904831182151516156139f2576139f2613967565b500290565b600080831283600160ff1b01831281151615613a1557613a15613967565b837f7fffffffffffffffffffffffffffffffffffffffffffffffffffffffffffffff018313811615613a4957613a49613967565b50500390565b600082613a6c57634e487b7160e01b600052601260045260246000fd5b500490565b600060208284031215613a8357600080fd5b5051919050565b600060208284031215613a9c57600080fd5b81518015158114610dd357600080fd5b6000808212827f7fffffffffffffffffffffffffffffffffffffffffffffffffffffffffffffff03841381151615613ae657613ae6613967565b82600160ff1b038412811615613afe57613afe613967565b50500190565b6000600019821415613b1857613b18613967565b5060010190565b60005b83811015613b3a578181015183820152602001613b22565b838111156125a05750506000910152565b60008251613b5d818460208701613b1f565b9190910192915050565b6020815260008251806020840152613b86816040850160208701613b1f565b601f01601f1916919091016040019291505056fea2646970667358221220268c6c49c5f55ce12623a4a9ca58114d789e91f19d549359369ff6fa7d9049d764736f6c63430008090033",
  "devdoc": {
    "custom:security-contact": "admin@dcastack.com",
    "kind": "dev",
    "methods": {
      "owner()": {
        "details": "Returns the address of the current owner."
      },
      "renounceOwnership()": {
        "details": "Leaves the contract without owner. It will not be possible to call `onlyOwner` functions anymore. Can only be called by the current owner. NOTE: Renouncing ownership will leave the contract without an owner, thereby removing any functionality that is only available to the owner."
      },
      "transferOwnership(address)": {
        "details": "Transfers ownership of the contract to a new account (`newOwner`). Can only be called by the current owner."
      }
    },
    "version": 1
  },
  "userdoc": {
    "kind": "user",
    "methods": {},
    "version": 1
  },
  "storageLayout": {
    "storage": [
      {
        "astId": 138,
        "contract": "contracts/DCAStack.sol:DCAStack",
        "label": "_initialized",
        "offset": 0,
        "slot": "0",
        "type": "t_uint8"
      },
      {
        "astId": 141,
        "contract": "contracts/DCAStack.sol:DCAStack",
        "label": "_initializing",
        "offset": 1,
        "slot": "0",
        "type": "t_bool"
      },
      {
        "astId": 625,
        "contract": "contracts/DCAStack.sol:DCAStack",
        "label": "__gap",
        "offset": 0,
        "slot": "1",
        "type": "t_array(t_uint256)50_storage"
      },
      {
        "astId": 10,
        "contract": "contracts/DCAStack.sol:DCAStack",
        "label": "_owner",
        "offset": 0,
        "slot": "51",
        "type": "t_address"
      },
      {
        "astId": 130,
        "contract": "contracts/DCAStack.sol:DCAStack",
        "label": "__gap",
        "offset": 0,
        "slot": "52",
        "type": "t_array(t_uint256)49_storage"
      },
      {
        "astId": 1956,
        "contract": "contracts/DCAStack.sol:DCAStack",
        "label": "userTokenBalances",
        "offset": 0,
        "slot": "101",
        "type": "t_mapping(t_address,t_mapping(t_address,t_uint256))"
      },
      {
        "astId": 1961,
        "contract": "contracts/DCAStack.sol:DCAStack",
        "label": "_userTokens",
        "offset": 0,
        "slot": "102",
        "type": "t_mapping(t_address,t_struct(AddressSet)938_storage)"
      },
      {
        "astId": 1965,
        "contract": "contracts/DCAStack.sol:DCAStack",
        "label": "userGasBalances",
        "offset": 0,
        "slot": "103",
        "type": "t_mapping(t_address,t_uint256)"
      },
      {
        "astId": 1968,
        "contract": "contracts/DCAStack.sol:DCAStack",
        "label": "_userGasAddresses",
        "offset": 0,
        "slot": "104",
        "type": "t_struct(AddressSet)938_storage"
      },
      {
        "astId": 2435,
        "contract": "contracts/DCAStack.sol:DCAStack",
        "label": "userToDcaSchedules",
        "offset": 0,
        "slot": "106",
        "type": "t_mapping(t_address,t_array(t_struct(DcaSchedule)2429_storage)dyn_storage)"
      },
      {
        "astId": 2438,
        "contract": "contracts/DCAStack.sol:DCAStack",
        "label": "_userAddresses",
        "offset": 0,
        "slot": "107",
        "type": "t_struct(AddressSet)938_storage"
      },
      {
        "astId": 296,
        "contract": "contracts/DCAStack.sol:DCAStack",
        "label": "_status",
        "offset": 0,
        "slot": "109",
        "type": "t_uint256"
      },
      {
        "astId": 340,
        "contract": "contracts/DCAStack.sol:DCAStack",
        "label": "__gap",
        "offset": 0,
        "slot": "110",
        "type": "t_array(t_uint256)49_storage"
      }
    ],
    "types": {
      "t_address": {
        "encoding": "inplace",
        "label": "address",
        "numberOfBytes": "20"
      },
      "t_array(t_bytes32)dyn_storage": {
        "base": "t_bytes32",
        "encoding": "dynamic_array",
        "label": "bytes32[]",
        "numberOfBytes": "32"
      },
      "t_array(t_struct(DcaSchedule)2429_storage)dyn_storage": {
        "base": "t_struct(DcaSchedule)2429_storage",
        "encoding": "dynamic_array",
        "label": "struct UserScheduleData.DcaSchedule[]",
        "numberOfBytes": "32"
      },
      "t_array(t_uint256)49_storage": {
        "base": "t_uint256",
        "encoding": "inplace",
        "label": "uint256[49]",
        "numberOfBytes": "1568"
      },
      "t_array(t_uint256)4_storage": {
        "base": "t_uint256",
        "encoding": "inplace",
        "label": "uint256[4]",
        "numberOfBytes": "128"
      },
      "t_array(t_uint256)50_storage": {
        "base": "t_uint256",
        "encoding": "inplace",
        "label": "uint256[50]",
        "numberOfBytes": "1600"
      },
      "t_bool": {
        "encoding": "inplace",
        "label": "bool",
        "numberOfBytes": "1"
      },
      "t_bytes32": {
        "encoding": "inplace",
        "label": "bytes32",
        "numberOfBytes": "32"
      },
      "t_mapping(t_address,t_array(t_struct(DcaSchedule)2429_storage)dyn_storage)": {
        "encoding": "mapping",
        "key": "t_address",
        "label": "mapping(address => struct UserScheduleData.DcaSchedule[])",
        "numberOfBytes": "32",
        "value": "t_array(t_struct(DcaSchedule)2429_storage)dyn_storage"
      },
      "t_mapping(t_address,t_mapping(t_address,t_uint256))": {
        "encoding": "mapping",
        "key": "t_address",
        "label": "mapping(address => mapping(address => uint256))",
        "numberOfBytes": "32",
        "value": "t_mapping(t_address,t_uint256)"
      },
      "t_mapping(t_address,t_struct(AddressSet)938_storage)": {
        "encoding": "mapping",
        "key": "t_address",
        "label": "mapping(address => struct EnumerableSetUpgradeable.AddressSet)",
        "numberOfBytes": "32",
        "value": "t_struct(AddressSet)938_storage"
      },
      "t_mapping(t_address,t_uint256)": {
        "encoding": "mapping",
        "key": "t_address",
        "label": "mapping(address => uint256)",
        "numberOfBytes": "32",
        "value": "t_uint256"
      },
      "t_mapping(t_bytes32,t_uint256)": {
        "encoding": "mapping",
        "key": "t_bytes32",
        "label": "mapping(bytes32 => uint256)",
        "numberOfBytes": "32",
        "value": "t_uint256"
      },
      "t_struct(AddressSet)938_storage": {
        "encoding": "inplace",
        "label": "struct EnumerableSetUpgradeable.AddressSet",
        "members": [
          {
            "astId": 937,
            "contract": "contracts/DCAStack.sol:DCAStack",
            "label": "_inner",
            "offset": 0,
            "slot": "0",
            "type": "t_struct(Set)637_storage"
          }
        ],
        "numberOfBytes": "64"
      },
      "t_struct(DcaSchedule)2429_storage": {
        "encoding": "inplace",
        "label": "struct UserScheduleData.DcaSchedule",
        "members": [
          {
            "astId": 2408,
            "contract": "contracts/DCAStack.sol:DCAStack",
            "label": "tradeFrequency",
            "offset": 0,
            "slot": "0",
            "type": "t_uint256"
          },
          {
            "astId": 2410,
            "contract": "contracts/DCAStack.sol:DCAStack",
            "label": "tradeAmount",
            "offset": 0,
            "slot": "1",
            "type": "t_uint256"
          },
          {
            "astId": 2412,
            "contract": "contracts/DCAStack.sol:DCAStack",
            "label": "remainingBudget",
            "offset": 0,
            "slot": "2",
            "type": "t_uint256"
          },
          {
            "astId": 2414,
            "contract": "contracts/DCAStack.sol:DCAStack",
            "label": "buyToken",
            "offset": 0,
            "slot": "3",
            "type": "t_address"
          },
          {
            "astId": 2416,
            "contract": "contracts/DCAStack.sol:DCAStack",
            "label": "sellToken",
            "offset": 0,
            "slot": "4",
            "type": "t_address"
          },
          {
            "astId": 2418,
            "contract": "contracts/DCAStack.sol:DCAStack",
            "label": "isActive",
            "offset": 20,
            "slot": "4",
            "type": "t_bool"
          },
          {
            "astId": 2422,
            "contract": "contracts/DCAStack.sol:DCAStack",
            "label": "scheduleDates",
            "offset": 0,
            "slot": "5",
            "type": "t_array(t_uint256)4_storage"
          },
          {
            "astId": 2424,
            "contract": "contracts/DCAStack.sol:DCAStack",
            "label": "soldAmount",
            "offset": 0,
            "slot": "9",
            "type": "t_uint256"
          },
          {
            "astId": 2426,
            "contract": "contracts/DCAStack.sol:DCAStack",
            "label": "boughtAmount",
            "offset": 0,
            "slot": "10",
            "type": "t_uint256"
          },
          {
            "astId": 2428,
            "contract": "contracts/DCAStack.sol:DCAStack",
            "label": "totalGas",
            "offset": 0,
            "slot": "11",
            "type": "t_uint256"
          }
        ],
        "numberOfBytes": "384"
      },
      "t_struct(Set)637_storage": {
        "encoding": "inplace",
        "label": "struct EnumerableSetUpgradeable.Set",
        "members": [
          {
            "astId": 632,
            "contract": "contracts/DCAStack.sol:DCAStack",
            "label": "_values",
            "offset": 0,
            "slot": "0",
            "type": "t_array(t_bytes32)dyn_storage"
          },
          {
            "astId": 636,
            "contract": "contracts/DCAStack.sol:DCAStack",
            "label": "_indexes",
            "offset": 0,
            "slot": "1",
            "type": "t_mapping(t_bytes32,t_uint256)"
          }
        ],
        "numberOfBytes": "64"
      },
      "t_uint256": {
        "encoding": "inplace",
        "label": "uint256",
        "numberOfBytes": "32"
      },
      "t_uint8": {
        "encoding": "inplace",
        "label": "uint8",
        "numberOfBytes": "1"
      }
    }
  }
}